{
  "_format": "hh-sol-artifact-1",
  "contractName": "CrazyZooStaking",
  "sourceName": "contracts/CrazyZooStaking.sol",
  "abi": [
    {
      "inputs": [
        {
          "internalType": "contract INftCollection",
          "name": "_nftCollection",
          "type": "address"
        },
        {
          "internalType": "address",
          "name": "__USDCToken",
          "type": "address"
        },
        {
          "internalType": "address",
          "name": "_SingleSwap",
          "type": "address"
        },
        {
          "internalType": "contract IZooToken",
          "name": "_ZooToken",
          "type": "address"
        },
        {
          "internalType": "address",
          "name": "_feeCollector",
          "type": "address"
        }
      ],
      "stateMutability": "nonpayable",
      "type": "constructor"
    },
    {
      "anonymous": false,
      "inputs": [
        {
          "indexed": false,
          "internalType": "uint256",
          "name": "_nftIndex",
          "type": "uint256"
        },
        {
          "indexed": false,
          "internalType": "uint256",
          "name": "_newValue",
          "type": "uint256"
        }
      ],
      "name": "NewRewardsPerDay",
      "type": "event"
    },
    {
      "anonymous": false,
      "inputs": [
        {
          "indexed": true,
          "internalType": "uint256[]",
          "name": "_tokenIds",
          "type": "uint256[]"
        },
        {
          "indexed": false,
          "internalType": "address",
          "name": "_to",
          "type": "address"
        }
      ],
      "name": "Withdrawn",
      "type": "event"
    },
    {
      "anonymous": false,
      "inputs": [
        {
          "indexed": false,
          "internalType": "uint256",
          "name": "rewards",
          "type": "uint256"
        }
      ],
      "name": "_claimRewards",
      "type": "event"
    },
    {
      "anonymous": false,
      "inputs": [
        {
          "indexed": false,
          "internalType": "uint256",
          "name": "_tokenId",
          "type": "uint256"
        }
      ],
      "name": "_feedYourAnimal",
      "type": "event"
    },
    {
      "anonymous": false,
      "inputs": [
        {
          "indexed": false,
          "internalType": "uint256[]",
          "name": "fees",
          "type": "uint256[]"
        }
      ],
      "name": "_foodPrices",
      "type": "event"
    },
    {
      "anonymous": false,
      "inputs": [
        {
          "indexed": false,
          "internalType": "bool",
          "name": "",
          "type": "bool"
        }
      ],
      "name": "_nftStaked",
      "type": "event"
    },
    {
      "anonymous": false,
      "inputs": [
        {
          "indexed": false,
          "internalType": "uint256",
          "name": "rewards",
          "type": "uint256"
        }
      ],
      "name": "_reinvestRewards",
      "type": "event"
    },
    {
      "inputs": [],
      "name": "USDCToken",
      "outputs": [
        {
          "internalType": "contract IERC20USDC",
          "name": "",
          "type": "address"
        }
      ],
      "stateMutability": "view",
      "type": "function"
    },
    {
      "inputs": [],
      "name": "ZooToken",
      "outputs": [
        {
          "internalType": "contract IZooToken",
          "name": "",
          "type": "address"
        }
      ],
      "stateMutability": "view",
      "type": "function"
    },
    {
      "inputs": [],
      "name": "ZooTokenDecimal",
      "outputs": [
        {
          "internalType": "uint256",
          "name": "",
          "type": "uint256"
        }
      ],
      "stateMutability": "view",
      "type": "function"
    },
    {
      "inputs": [],
      "name": "_USDCToken",
      "outputs": [
        {
          "internalType": "address",
          "name": "",
          "type": "address"
        }
      ],
      "stateMutability": "view",
      "type": "function"
    },
    {
      "inputs": [],
      "name": "_swap",
      "outputs": [
        {
          "internalType": "address",
          "name": "",
          "type": "address"
        }
      ],
      "stateMutability": "view",
      "type": "function"
    },
    {
      "inputs": [
        {
          "internalType": "address",
          "name": "_user",
          "type": "address"
        }
      ],
      "name": "availableRewards",
      "outputs": [
        {
          "internalType": "uint256",
          "name": "",
          "type": "uint256"
        }
      ],
      "stateMutability": "view",
      "type": "function"
    },
    {
      "inputs": [
        {
          "internalType": "address",
          "name": "staker_",
          "type": "address"
        }
      ],
      "name": "calculateRewards",
      "outputs": [
        {
          "internalType": "uint256",
          "name": "",
          "type": "uint256"
        }
      ],
      "stateMutability": "view",
      "type": "function"
    },
    {
      "inputs": [],
      "name": "claimRewards",
      "outputs": [],
      "stateMutability": "nonpayable",
      "type": "function"
    },
    {
      "inputs": [],
      "name": "feeCollector",
      "outputs": [
        {
          "internalType": "address",
          "name": "",
          "type": "address"
        }
      ],
      "stateMutability": "view",
      "type": "function"
    },
    {
      "inputs": [
        {
          "internalType": "uint256",
          "name": "_tokenId",
          "type": "uint256"
        }
      ],
      "name": "feedYourAnimal",
      "outputs": [],
      "stateMutability": "nonpayable",
      "type": "function"
    },
    {
      "inputs": [
        {
          "internalType": "uint256",
          "name": "",
          "type": "uint256"
        }
      ],
      "name": "foodPrices",
      "outputs": [
        {
          "internalType": "uint256",
          "name": "",
          "type": "uint256"
        }
      ],
      "stateMutability": "view",
      "type": "function"
    },
    {
      "inputs": [],
      "name": "getNFTAddress",
      "outputs": [
        {
          "internalType": "contract INftCollection",
          "name": "",
          "type": "address"
        }
      ],
      "stateMutability": "view",
      "type": "function"
    },
    {
      "inputs": [],
      "name": "getRewardDays",
      "outputs": [
        {
          "internalType": "uint256",
          "name": "",
          "type": "uint256"
        },
        {
          "internalType": "uint256",
          "name": "",
          "type": "uint256"
        },
        {
          "internalType": "uint256",
          "name": "",
          "type": "uint256"
        }
      ],
      "stateMutability": "view",
      "type": "function"
    },
    {
      "inputs": [],
      "name": "getRewardsPerDay",
      "outputs": [
        {
          "internalType": "uint256",
          "name": "",
          "type": "uint256"
        },
        {
          "internalType": "uint256",
          "name": "",
          "type": "uint256"
        },
        {
          "internalType": "uint256",
          "name": "",
          "type": "uint256"
        }
      ],
      "stateMutability": "view",
      "type": "function"
    },
    {
      "inputs": [],
      "name": "getSwapAddress",
      "outputs": [
        {
          "internalType": "contract ISingleSwap",
          "name": "",
          "type": "address"
        }
      ],
      "stateMutability": "view",
      "type": "function"
    },
    {
      "inputs": [],
      "name": "getUsdcAddress",
      "outputs": [
        {
          "internalType": "address",
          "name": "",
          "type": "address"
        }
      ],
      "stateMutability": "view",
      "type": "function"
    },
    {
      "inputs": [
        {
          "internalType": "uint256",
          "name": "_withdrawAmount",
          "type": "uint256"
        },
        {
          "internalType": "uint256",
          "name": "_depositAmount",
          "type": "uint256"
        }
      ],
      "name": "getWhaleFee",
      "outputs": [
        {
          "internalType": "uint256",
          "name": "",
          "type": "uint256"
        }
      ],
      "stateMutability": "view",
      "type": "function"
    },
    {
      "inputs": [],
      "name": "getZooAddress",
      "outputs": [
        {
          "internalType": "contract IZooToken",
          "name": "",
          "type": "address"
        }
      ],
      "stateMutability": "view",
      "type": "function"
    },
    {
      "inputs": [],
      "name": "getZooTokenDecimal",
      "outputs": [
        {
          "internalType": "uint256",
          "name": "",
          "type": "uint256"
        }
      ],
      "stateMutability": "view",
      "type": "function"
    },
    {
      "inputs": [],
      "name": "getwhalesWithdrawalExtraFee",
      "outputs": [
        {
          "internalType": "uint256",
          "name": "",
          "type": "uint256"
        }
      ],
      "stateMutability": "view",
      "type": "function"
    },
    {
      "inputs": [
        {
          "internalType": "uint256",
          "name": "_tokenId",
          "type": "uint256"
        }
      ],
      "name": "isHungry",
      "outputs": [
        {
          "internalType": "bool",
          "name": "",
          "type": "bool"
        }
      ],
      "stateMutability": "view",
      "type": "function"
    },
    {
      "inputs": [],
      "name": "nftCollection",
      "outputs": [
        {
          "internalType": "contract INftCollection",
          "name": "",
          "type": "address"
        }
      ],
      "stateMutability": "view",
      "type": "function"
    },
    {
      "inputs": [],
      "name": "owner",
      "outputs": [
        {
          "internalType": "address",
          "name": "",
          "type": "address"
        }
      ],
      "stateMutability": "view",
      "type": "function"
    },
    {
      "inputs": [],
      "name": "reinvestRewards",
      "outputs": [],
      "stateMutability": "nonpayable",
      "type": "function"
    },
    {
      "inputs": [
        {
          "internalType": "uint256",
          "name": "",
          "type": "uint256"
        }
      ],
      "name": "rewardDays",
      "outputs": [
        {
          "internalType": "uint256",
          "name": "",
          "type": "uint256"
        }
      ],
      "stateMutability": "view",
      "type": "function"
    },
    {
      "inputs": [
        {
          "internalType": "uint256",
          "name": "",
          "type": "uint256"
        }
      ],
      "name": "rewardsPerDay",
      "outputs": [
        {
          "internalType": "uint256",
          "name": "",
          "type": "uint256"
        }
      ],
      "stateMutability": "view",
      "type": "function"
    },
    {
      "inputs": [
        {
          "internalType": "uint256[]",
          "name": "fees",
          "type": "uint256[]"
        }
      ],
      "name": "setFees",
      "outputs": [],
      "stateMutability": "nonpayable",
      "type": "function"
    },
    {
      "inputs": [
        {
          "internalType": "address",
          "name": "nftAddress",
          "type": "address"
        }
      ],
      "name": "setNFTAddress",
      "outputs": [],
      "stateMutability": "nonpayable",
      "type": "function"
    },
    {
      "inputs": [
        {
          "internalType": "uint256",
          "name": "_nftIndex",
          "type": "uint256"
        },
        {
          "internalType": "uint256",
          "name": "_newDays",
          "type": "uint256"
        }
      ],
      "name": "setRewardDays",
      "outputs": [],
      "stateMutability": "nonpayable",
      "type": "function"
    },
    {
      "inputs": [
        {
          "internalType": "uint256",
          "name": "_nftIndex",
          "type": "uint256"
        },
        {
          "internalType": "uint256",
          "name": "_newValue",
          "type": "uint256"
        }
      ],
      "name": "setRewardsPerDay",
      "outputs": [],
      "stateMutability": "nonpayable",
      "type": "function"
    },
    {
      "inputs": [
        {
          "internalType": "address",
          "name": "_swapAddress",
          "type": "address"
        }
      ],
      "name": "setSwapAddress",
      "outputs": [],
      "stateMutability": "nonpayable",
      "type": "function"
    },
    {
      "inputs": [
        {
          "internalType": "address",
          "name": "usdcToken",
          "type": "address"
        }
      ],
      "name": "setUsdcAddress",
      "outputs": [],
      "stateMutability": "nonpayable",
      "type": "function"
    },
    {
      "inputs": [
        {
          "internalType": "address",
          "name": "ZooAddress",
          "type": "address"
        }
      ],
      "name": "setZooAddress",
      "outputs": [],
      "stateMutability": "nonpayable",
      "type": "function"
    },
    {
      "inputs": [
        {
          "internalType": "uint256",
          "name": "tokenDecimal",
          "type": "uint256"
        }
      ],
      "name": "setZooTokenDecimal",
      "outputs": [],
      "stateMutability": "nonpayable",
      "type": "function"
    },
    {
      "inputs": [
        {
          "internalType": "uint256",
          "name": "fees",
          "type": "uint256"
        }
      ],
      "name": "setwhalesWithdrawalExtraFee",
      "outputs": [],
      "stateMutability": "nonpayable",
      "type": "function"
    },
    {
      "inputs": [
        {
          "internalType": "uint256[]",
          "name": "_tokenIds",
          "type": "uint256[]"
        }
      ],
      "name": "stakeNFT",
      "outputs": [],
      "stateMutability": "nonpayable",
      "type": "function"
    },
    {
      "inputs": [
        {
          "internalType": "uint256",
          "name": "",
          "type": "uint256"
        }
      ],
      "name": "stakedBefore",
      "outputs": [
        {
          "internalType": "bool",
          "name": "",
          "type": "bool"
        }
      ],
      "stateMutability": "view",
      "type": "function"
    },
    {
      "inputs": [
        {
          "internalType": "address",
          "name": "",
          "type": "address"
        },
        {
          "internalType": "uint256",
          "name": "",
          "type": "uint256"
        }
      ],
      "name": "stakedNfts",
      "outputs": [
        {
          "internalType": "uint256",
          "name": "id",
          "type": "uint256"
        },
        {
          "internalType": "uint256",
          "name": "feedCounter",
          "type": "uint256"
        },
        {
          "internalType": "uint256",
          "name": "lastTimeFed",
          "type": "uint256"
        },
        {
          "internalType": "uint256",
          "name": "timeStaked",
          "type": "uint256"
        },
        {
          "internalType": "bool",
          "name": "expired",
          "type": "bool"
        }
      ],
      "stateMutability": "view",
      "type": "function"
    },
    {
      "inputs": [
        {
          "internalType": "uint256",
          "name": "",
          "type": "uint256"
        }
      ],
      "name": "stakerAddress",
      "outputs": [
        {
          "internalType": "address",
          "name": "",
          "type": "address"
        }
      ],
      "stateMutability": "view",
      "type": "function"
    },
    {
      "inputs": [
        {
          "internalType": "address",
          "name": "",
          "type": "address"
        }
      ],
      "name": "stakers",
      "outputs": [
        {
          "internalType": "uint256",
          "name": "fundsDeposited",
          "type": "uint256"
        },
        {
          "internalType": "uint256",
          "name": "amountStaked",
          "type": "uint256"
        },
        {
          "internalType": "uint256",
          "name": "timeOfLastUpdate",
          "type": "uint256"
        },
        {
          "internalType": "uint256",
          "name": "unclaimedRewards",
          "type": "uint256"
        }
      ],
      "stateMutability": "view",
      "type": "function"
    },
    {
      "inputs": [
        {
          "internalType": "uint256",
          "name": "",
          "type": "uint256"
        }
      ],
      "name": "stakersArray",
      "outputs": [
        {
          "internalType": "address",
          "name": "",
          "type": "address"
        }
      ],
      "stateMutability": "view",
      "type": "function"
    },
    {
      "inputs": [],
      "name": "swap",
      "outputs": [
        {
          "internalType": "contract ISingleSwap",
          "name": "",
          "type": "address"
        }
      ],
      "stateMutability": "view",
      "type": "function"
    },
    {
      "inputs": [
        {
          "internalType": "address",
          "name": "_user",
          "type": "address"
        }
      ],
      "name": "userStakeInfo",
      "outputs": [
        {
          "internalType": "uint256",
          "name": "_tokensStaked",
          "type": "uint256"
        },
        {
          "internalType": "uint256",
          "name": "_availableRewards",
          "type": "uint256"
        }
      ],
      "stateMutability": "view",
      "type": "function"
    },
    {
      "inputs": [],
      "name": "whalesWithdrawalExtraFee",
      "outputs": [
        {
          "internalType": "uint256",
          "name": "",
          "type": "uint256"
        }
      ],
      "stateMutability": "view",
      "type": "function"
    },
    {
      "inputs": [
        {
          "internalType": "uint256[]",
          "name": "_tokenIds",
          "type": "uint256[]"
        }
      ],
      "name": "withdraw",
      "outputs": [],
      "stateMutability": "nonpayable",
      "type": "function"
    }
  ],
  "bytecode": "0x608060405260405180606001604052806730927f74c9de000067ffffffffffffffff1681526020016768155a43676e000067ffffffffffffffff1681526020016714d1120d7b16000067ffffffffffffffff16815250600b906003620000679291906200034d565b506040518060600160405280620927c062ffffff168152602001620aae6062ffffff168152602001620c350062ffffff16815250600e906003620000ad9291906200039e565b5060405180606001604052806302932e0063ffffffff1681526020016302932e0063ffffffff1681526020016302932e0063ffffffff168152506011906003620000f9929190620003ea565b50620f4240601655622625a06017553480156200011557600080fd5b50604051620058c7380380620058c783398181016040528101906200013b91906200049b565b84600160006101000a81548173ffffffffffffffffffffffffffffffffffffffff021916908373ffffffffffffffffffffffffffffffffffffffff160217905550836000806101000a81548173ffffffffffffffffffffffffffffffffffffffff021916908373ffffffffffffffffffffffffffffffffffffffff16021790555083600560006101000a81548173ffffffffffffffffffffffffffffffffffffffff021916908373ffffffffffffffffffffffffffffffffffffffff16021790555082600260006101000a81548173ffffffffffffffffffffffffffffffffffffffff021916908373ffffffffffffffffffffffffffffffffffffffff16021790555082600360006101000a81548173ffffffffffffffffffffffffffffffffffffffff021916908373ffffffffffffffffffffffffffffffffffffffff16021790555081600460006101000a81548173ffffffffffffffffffffffffffffffffffffffff021916908373ffffffffffffffffffffffffffffffffffffffff16021790555033601460006101000a81548173ffffffffffffffffffffffffffffffffffffffff021916908373ffffffffffffffffffffffffffffffffffffffff16021790555080601560006101000a81548173ffffffffffffffffffffffffffffffffffffffff021916908373ffffffffffffffffffffffffffffffffffffffff1602179055505050505050620005d2565b82600381019282156200038b579160200282015b828111156200038a578251829067ffffffffffffffff1690559160200191906001019062000361565b5b5090506200039a919062000437565b5090565b8260038101928215620003d7579160200282015b82811115620003d6578251829062ffffff16905591602001919060010190620003b2565b5b509050620003e6919062000437565b5090565b826003810192821562000424579160200282015b8281111562000423578251829063ffffffff16905591602001919060010190620003fe565b5b50905062000433919062000437565b5090565b5b808211156200045257600081600090555060010162000438565b5090565b600081519050620004678162000584565b92915050565b6000815190506200047e816200059e565b92915050565b6000815190506200049581620005b8565b92915050565b600080600080600060a08688031215620004ba57620004b96200057f565b5b6000620004ca888289016200046d565b9550506020620004dd8882890162000456565b9450506040620004f08882890162000456565b9350506060620005038882890162000484565b9250506080620005168882890162000456565b9150509295509295909350565b600062000530826200055f565b9050919050565b6000620005448262000523565b9050919050565b6000620005588262000523565b9050919050565b600073ffffffffffffffffffffffffffffffffffffffff82169050919050565b600080fd5b6200058f8162000523565b81146200059b57600080fd5b50565b620005a98162000537565b8114620005b557600080fd5b50565b620005c3816200054b565b8114620005cf57600080fd5b50565b6152e580620005e26000396000f3fe608060405234801561001057600080fd5b506004361061027f5760003560e01c80637dc4b9cc1161015c578063a61f091a116100ce578063d38bcdee11610087578063d38bcdee146107ba578063dbe0b5b2146107d6578063e2421bd3146107f4578063e4bd248e14610812578063eb75bc3614610832578063f854a27f146108505761027f565b8063a61f091a14610708578063b194816114610726578063b3fe65f014610744578063b5f4d38c14610774578063b96184781461077e578063c415b95c1461079c5761027f565b80638bc824d5116101205780638bc824d51461061b5780638da5cb5b146106375780639168ae7214610655578063940670451461068857806394b6e751146106b8578063983d95ce146106ec5761027f565b80637dc4b9cc1461056357806380670ac01461057f5780638119c065146105af57806385811fbf146105cd5780638847081a146105eb5761027f565b80634d58192f116101f557806364ab8675116101b957806364ab86751461049f5780636588103b146104cf57806369d03738146104ed5780636c829c6e1461050957806378ce00c4146105295780637a3ccebd146105455761027f565b80634d58192f146103e85780634ead4327146104045780634fa91720146104355780635357e916146104515780635a6759cd146104815761027f565b80631a1faa99116102475780631a1faa991461034e5780632ae0357f1461036a57806330688ab81461038657806333f398d4146103a4578063372500ab146103c05780634c34c8de146103ca5761027f565b806303345203146102845780630de84540146102b45780631299c2e1146102d2578063182c574414610302578063183218d11461031e575b600080fd5b61029e60048036038101906102999190614567565b610880565b6040516102ab9190614bf1565b60405180910390f35b6102bc61089b565b6040516102c99190614a36565b60405180910390f35b6102ec60048036038101906102e79190614567565b6108c1565b6040516102f991906149ca565b60405180910390f35b61031c600480360381019061031791906144ed565b6108e1565b005b61033860048036038101906103339190614567565b611616565b60405161034591906149ca565b60405180910390f35b61036860048036038101906103639190614453565b611891565b005b610384600480360381019061037f91906144ed565b61199f565b005b61038e611aea565b60405161039b9190614902565b60405180910390f35b6103be60048036038101906103b99190614567565b611b10565b005b6103c8611ecb565b005b6103d26120c9565b6040516103df91906149e5565b60405180910390f35b61040260048036038101906103fd91906145c1565b6120ef565b005b61041e60048036038101906104199190614453565b612343565b60405161042c929190614c35565b60405180910390f35b61044f600480360381019061044a91906145c1565b61239b565b005b61046b60048036038101906104669190614567565b612628565b6040516104789190614902565b60405180910390f35b610489612667565b6040516104969190614902565b60405180910390f35b6104b960048036038101906104b49190614453565b61268b565b6040516104c69190614bf1565b60405180910390f35b6104d7612b6e565b6040516104e49190614a00565b60405180910390f35b61050760048036038101906105029190614453565b612b94565b005b610511612ca2565b60405161052093929190614c5e565b60405180910390f35b610543600480360381019061053e9190614567565b612cf7565b005b61054d612d9e565b60405161055a9190614a36565b60405180910390f35b61057d60048036038101906105789190614453565b612dc8565b005b61059960048036038101906105949190614567565b612ed6565b6040516105a69190614bf1565b60405180910390f35b6105b7612ef1565b6040516105c49190614a1b565b60405180910390f35b6105d5612f17565b6040516105e29190614a1b565b60405180910390f35b610605600480360381019061060091906145c1565b612f41565b6040516106129190614bf1565b60405180910390f35b61063560048036038101906106309190614567565b613399565b005b61063f613441565b60405161064c9190614902565b60405180910390f35b61066f600480360381019061066a9190614453565b613467565b60405161067f9493929190614c95565b60405180910390f35b6106a2600480360381019061069d9190614567565b613497565b6040516106af9190614902565b60405180910390f35b6106d260048036038101906106cd91906144ad565b6134ca565b6040516106e3959493929190614cda565b60405180910390f35b610706600480360381019061070191906144ed565b61352a565b005b610710613a69565b60405161071d9190614bf1565b60405180910390f35b61072e613a73565b60405161073b9190614bf1565b60405180910390f35b61075e60048036038101906107599190614567565b613a7d565b60405161076b9190614bf1565b60405180910390f35b61077c613a98565b005b610786613d69565b6040516107939190614a00565b60405180910390f35b6107a4613d93565b6040516107b19190614902565b60405180910390f35b6107d460048036038101906107cf9190614453565b613db9565b005b6107de613ec6565b6040516107eb9190614902565b60405180910390f35b6107fc613eef565b6040516108099190614bf1565b60405180910390f35b61081a613ef5565b60405161082993929190614c5e565b60405180910390f35b61083a613f4a565b6040516108479190614bf1565b60405180910390f35b61086a60048036038101906108659190614453565b613f50565b6040516108779190614bf1565b60405180910390f35b6011816003811061089057600080fd5b016000915090505481565b600460009054906101000a900473ffffffffffffffffffffffffffffffffffffffff1681565b600a6020528060005260406000206000915054906101000a900460ff1681565b601860009054906101000a900460ff1615610931576040517f08c379a000000000000000000000000000000000000000000000000000000000815260040161092890614a51565b60405180910390fd5b6001601860006101000a81548160ff0219169083151502179055506000600760003373ffffffffffffffffffffffffffffffffffffffff1673ffffffffffffffffffffffffffffffffffffffff168152602001908152602001600020600101541115610a0c5760006109a23361268b565b905080600760003373ffffffffffffffffffffffffffffffffffffffff1673ffffffffffffffffffffffffffffffffffffffff16815260200190815260200160002060030160008282546109f69190614d5a565b92505081905550610a063361404a565b50610a70565b6006339080600181540180825580915050600190039060005260206000200160009091909190916101000a81548173ffffffffffffffffffffffffffffffffffffffff021916908373ffffffffffffffffffffffffffffffffffffffff1602179055505b600082829050905060005b8181101561151d57600a6000858584818110610a9a57610a99615008565b5b90506020020135815260200190815260200160002060009054906101000a900460ff1615610afd576040517f08c379a0000000000000000000000000000000000000000000000000000000008152600401610af490614a91565b60405180910390fd5b6000600160009054906101000a900473ffffffffffffffffffffffffffffffffffffffff1673ffffffffffffffffffffffffffffffffffffffff16632c59ff10868685818110610b5057610b4f615008565b5b905060200201356040518263ffffffff1660e01b8152600401610b739190614bf1565b60206040518083038186803b158015610b8b57600080fd5b505afa158015610b9f573d6000803e3d6000fd5b505050506040513d601f19601f82011682018060405250810190610bc39190614594565b90503373ffffffffffffffffffffffffffffffffffffffff16600160009054906101000a900473ffffffffffffffffffffffffffffffffffffffff1673ffffffffffffffffffffffffffffffffffffffff16636352211e878786818110610c2d57610c2c615008565b5b905060200201356040518263ffffffff1660e01b8152600401610c509190614bf1565b60206040518083038186803b158015610c6857600080fd5b505afa158015610c7c573d6000803e3d6000fd5b505050506040513d601f19601f82011682018060405250810190610ca09190614480565b73ffffffffffffffffffffffffffffffffffffffff1614610cf6576040517f08c379a0000000000000000000000000000000000000000000000000000000008152600401610ced90614bb1565b60405180910390fd5b600160009054906101000a900473ffffffffffffffffffffffffffffffffffffffff1673ffffffffffffffffffffffffffffffffffffffff1663e985e9c533306040518363ffffffff1660e01b8152600401610d5392919061491d565b60206040518083038186803b158015610d6b57600080fd5b505afa158015610d7f573d6000803e3d6000fd5b505050506040513d601f19601f82011682018060405250810190610da3919061453a565b610de2576040517f08c379a0000000000000000000000000000000000000000000000000000000008152600401610dd990614b31565b60405180910390fd5b600160009054906101000a900473ffffffffffffffffffffffffffffffffffffffff1673ffffffffffffffffffffffffffffffffffffffff166323b872dd3330888887818110610e3557610e34615008565b5b905060200201356040518463ffffffff1660e01b8152600401610e5a93929190614946565b600060405180830381600087803b158015610e7457600080fd5b505af1158015610e88573d6000803e3d6000fd5b50505050600560009054906101000a900473ffffffffffffffffffffffffffffffffffffffff1673ffffffffffffffffffffffffffffffffffffffff166323b872dd601560009054906101000a900473ffffffffffffffffffffffffffffffffffffffff1630600160009054906101000a900473ffffffffffffffffffffffffffffffffffffffff1673ffffffffffffffffffffffffffffffffffffffff1663b524ecab866040518263ffffffff1660e01b8152600401610f499190614bf1565b60206040518083038186803b158015610f6157600080fd5b505afa158015610f75573d6000803e3d6000fd5b505050506040513d601f19601f82011682018060405250810190610f999190614594565b6040518463ffffffff1660e01b8152600401610fb793929190614946565b602060405180830381600087803b158015610fd157600080fd5b505af1158015610fe5573d6000803e3d6000fd5b505050506040513d601f19601f82011682018060405250810190611009919061453a565b50600560009054906101000a900473ffffffffffffffffffffffffffffffffffffffff1673ffffffffffffffffffffffffffffffffffffffff1663095ea7b3600260009054906101000a900473ffffffffffffffffffffffffffffffffffffffff16600160009054906101000a900473ffffffffffffffffffffffffffffffffffffffff1673ffffffffffffffffffffffffffffffffffffffff1663b524ecab856040518263ffffffff1660e01b81526004016110c69190614bf1565b60206040518083038186803b1580156110de57600080fd5b505afa1580156110f2573d6000803e3d6000fd5b505050506040513d601f19601f820116820180604052508101906111169190614594565b6040518363ffffffff1660e01b815260040161113392919061497d565b602060405180830381600087803b15801561114d57600080fd5b505af1158015611161573d6000803e3d6000fd5b505050506040513d601f19601f82011682018060405250810190611185919061453a565b506000600360009054906101000a900473ffffffffffffffffffffffffffffffffffffffff1673ffffffffffffffffffffffffffffffffffffffff1663a3e517f2600160009054906101000a900473ffffffffffffffffffffffffffffffffffffffff1673ffffffffffffffffffffffffffffffffffffffff1663b524ecab856040518263ffffffff1660e01b81526004016112219190614bf1565b60206040518083038186803b15801561123957600080fd5b505afa15801561124d573d6000803e3d6000fd5b505050506040513d601f19601f820116820180604052508101906112719190614594565b60008054906101000a900473ffffffffffffffffffffffffffffffffffffffff166040518363ffffffff1660e01b81526004016112af929190614c0c565b602060405180830381600087803b1580156112c957600080fd5b505af11580156112dd573d6000803e3d6000fd5b505050506040513d601f19601f820116820180604052508101906113019190614594565b9050336009600088888781811061131b5761131a615008565b5b90506020020135815260200190815260200160002060006101000a81548173ffffffffffffffffffffffffffffffffffffffff021916908373ffffffffffffffffffffffffffffffffffffffff160217905550611376614363565b86868581811061138957611388615008565b5b9050602002013581600001818152505060008160200181815250504281604001818152505042816060018181525050600860003373ffffffffffffffffffffffffffffffffffffffff1673ffffffffffffffffffffffffffffffffffffffff1681526020019081526020016000208190806001815401808255809150506001900390600052602060002090600502016000909190919091506000820151816000015560208201518160010155604082015181600201556060820151816003015560808201518160040160006101000a81548160ff021916908315150217905550505081600760003373ffffffffffffffffffffffffffffffffffffffff1673ffffffffffffffffffffffffffffffffffffffff16815260200190815260200160002060000160008282546114bd9190614d5a565b925050819055506001600a60008989888181106114dd576114dc615008565b5b90506020020135815260200190815260200160002060006101000a81548160ff0219169083151502179055505050508061151690614f32565b9050610a7b565b5080600760003373ffffffffffffffffffffffffffffffffffffffff1673ffffffffffffffffffffffffffffffffffffffff16815260200190815260200160002060010160008282546115709190614d5a565b9250508190555042600760003373ffffffffffffffffffffffffffffffffffffffff1673ffffffffffffffffffffffffffffffffffffffff168152602001908152602001600020600201819055507f01b859d705e4dbf9ab01a51a8b8ba51206a36d9b9097301ee8332cfca9662ba060016040516115ee91906149ca565b60405180910390a1506000601860006101000a81548160ff0219169083151502179055505050565b60008060006009600085815260200190815260200160002060009054906101000a900473ffffffffffffffffffffffffffffffffffffffff169050600073ffffffffffffffffffffffffffffffffffffffff168173ffffffffffffffffffffffffffffffffffffffff1614156116c1576040517f08c379a00000000000000000000000000000000000000000000000000000000081526004016116b890614ab1565b60405180910390fd5b6000600760008373ffffffffffffffffffffffffffffffffffffffff1673ffffffffffffffffffffffffffffffffffffffff16815260200190815260200160002060405180608001604052908160008201548152602001600182015481526020016002820154815260200160038201548152505090506000600860008473ffffffffffffffffffffffffffffffffffffffff1673ffffffffffffffffffffffffffffffffffffffff168152602001908152602001600020805480602002602001604051908101604052809291908181526020016000905b8282101561180d57838290600052602060002090600502016040518060a0016040529081600082015481526020016001820154815260200160028201548152602001600382015481526020016004820160009054906101000a900460ff16151515158152505081526020019060010190611798565b50505050905060005b826020015181101561188357600082828151811061183757611836615008565b5b60200260200101519050878160000151141561186f5762278d008160400151426118619190614e3b565b11965050505050505061188c565b50808061187b90614f32565b915050611816565b50839450505050505b919050565b601460009054906101000a900473ffffffffffffffffffffffffffffffffffffffff1673ffffffffffffffffffffffffffffffffffffffff163373ffffffffffffffffffffffffffffffffffffffff16146118eb57600080fd5b600073ffffffffffffffffffffffffffffffffffffffff168173ffffffffffffffffffffffffffffffffffffffff16141561195b576040517f08c379a000000000000000000000000000000000000000000000000000000000815260040161195290614a71565b60405180910390fd5b80600460006101000a81548173ffffffffffffffffffffffffffffffffffffffff021916908373ffffffffffffffffffffffffffffffffffffffff16021790555050565b601460009054906101000a900473ffffffffffffffffffffffffffffffffffffffff1673ffffffffffffffffffffffffffffffffffffffff163373ffffffffffffffffffffffffffffffffffffffff16146119f957600080fd5b60006003905060005b81811015611aab576000848483818110611a1f57611a1e615008565b5b905060200201351415611a67576040517f08c379a0000000000000000000000000000000000000000000000000000000008152600401611a5e90614b11565b60405180910390fd5b838382818110611a7a57611a79615008565b5b90506020020135600b8260038110611a9557611a94615008565b5b018190555080611aa490614f32565b9050611a02565b507fe906f36f8c2a331b7f25462604f12087e22eeeec9ec30fcd615297f938917d028383604051611add9291906149a6565b60405180910390a1505050565b600260009054906101000a900473ffffffffffffffffffffffffffffffffffffffff1681565b6000600160009054906101000a900473ffffffffffffffffffffffffffffffffffffffff1673ffffffffffffffffffffffffffffffffffffffff16632c59ff10836040518263ffffffff1660e01b8152600401611b6d9190614bf1565b60206040518083038186803b158015611b8557600080fd5b505afa158015611b99573d6000803e3d6000fd5b505050506040513d601f19601f82011682018060405250810190611bbd9190614594565b90506000600b600183611bd09190614e3b565b60038110611be157611be0615008565b5b0154905080600560009054906101000a900473ffffffffffffffffffffffffffffffffffffffff1673ffffffffffffffffffffffffffffffffffffffff1663dd62ed3e33306040518363ffffffff1660e01b8152600401611c4392919061491d565b60206040518083038186803b158015611c5b57600080fd5b505afa158015611c6f573d6000803e3d6000fd5b505050506040513d601f19601f82011682018060405250810190611c939190614594565b1015611cd4576040517f08c379a0000000000000000000000000000000000000000000000000000000008152600401611ccb90614b71565b60405180910390fd5b600560009054906101000a900473ffffffffffffffffffffffffffffffffffffffff1673ffffffffffffffffffffffffffffffffffffffff166323b872dd3330846040518463ffffffff1660e01b8152600401611d3393929190614946565b602060405180830381600087803b158015611d4d57600080fd5b505af1158015611d61573d6000803e3d6000fd5b505050506040513d601f19601f82011682018060405250810190611d85919061453a565b506000600860003373ffffffffffffffffffffffffffffffffffffffff1673ffffffffffffffffffffffffffffffffffffffff168152602001908152602001600020905060008180549050905060005b81811015611e8b5785838281548110611df157611df0615008565b5b9060005260206000209060050201600001541415611e78576001838281548110611e1e57611e1d615008565b5b90600052602060002090600502016001016000828254611e3e9190614d5a565b9250508190555042838281548110611e5957611e58615008565b5b9060005260206000209060050201600201819055505050505050611ec8565b8080611e8390614f32565b915050611dd5565b507f6e9c8d08eb1b695e0c40de2e97dff183b797a545fd819951fc9309f6d0686e0d85604051611ebb9190614bf1565b60405180910390a1505050505b50565b6000600760003373ffffffffffffffffffffffffffffffffffffffff1673ffffffffffffffffffffffffffffffffffffffff16815260200190815260200160002060030154611f193361268b565b611f239190614d5a565b9050611f2e3361404a565b60008111611f71576040517f08c379a0000000000000000000000000000000000000000000000000000000008152600401611f6890614b91565b60405180910390fd5b42600760003373ffffffffffffffffffffffffffffffffffffffff1673ffffffffffffffffffffffffffffffffffffffff168152602001908152602001600020600201819055506000600760003373ffffffffffffffffffffffffffffffffffffffff1673ffffffffffffffffffffffffffffffffffffffff16815260200190815260200160002060030181905550600460009054906101000a900473ffffffffffffffffffffffffffffffffffffffff1673ffffffffffffffffffffffffffffffffffffffff1663a9059cbb33836040518363ffffffff1660e01b815260040161205d92919061497d565b600060405180830381600087803b15801561207757600080fd5b505af115801561208b573d6000803e3d6000fd5b505050507f4a65ea6086358f26aeebacdd97ac30a7eb4cdaa82d69535f2a987610d7463339816040516120be9190614bf1565b60405180910390a150565b600560009054906101000a900473ffffffffffffffffffffffffffffffffffffffff1681565b601460009054906101000a900473ffffffffffffffffffffffffffffffffffffffff1673ffffffffffffffffffffffffffffffffffffffff163373ffffffffffffffffffffffffffffffffffffffff161461214957600080fd5b6000821180156121595750600482105b612198576040517f08c379a000000000000000000000000000000000000000000000000000000000815260040161218f90614bd1565b60405180910390fd5b6000600680548060200260200160405190810160405280929190818152602001828054801561221c57602002820191906000526020600020905b8160009054906101000a900473ffffffffffffffffffffffffffffffffffffffff1673ffffffffffffffffffffffffffffffffffffffff16815260200190600101908083116121d2575b5050505050905060008151905060005b8181101561231657600083828151811061224957612248615008565b5b6020026020010151905061225c8161268b565b600760008373ffffffffffffffffffffffffffffffffffffffff1673ffffffffffffffffffffffffffffffffffffffff16815260200190815260200160002060030160008282546122ad9190614d5a565b925050819055506122bd8161404a565b42600760008373ffffffffffffffffffffffffffffffffffffffff1673ffffffffffffffffffffffffffffffffffffffff16815260200190815260200160002060020181905550508061230f90614f32565b905061222c565b508260116001866123279190614e3b565b6003811061233857612337615008565b5b018190555050505050565b600080600760008473ffffffffffffffffffffffffffffffffffffffff1673ffffffffffffffffffffffffffffffffffffffff1681526020019081526020016000206001015461239284613f50565b91509150915091565b601460009054906101000a900473ffffffffffffffffffffffffffffffffffffffff1673ffffffffffffffffffffffffffffffffffffffff163373ffffffffffffffffffffffffffffffffffffffff16146123f557600080fd5b6000821180156124055750600482105b612444576040517f08c379a000000000000000000000000000000000000000000000000000000000815260040161243b90614bd1565b60405180910390fd5b600060068054806020026020016040519081016040528092919081815260200182805480156124c857602002820191906000526020600020905b8160009054906101000a900473ffffffffffffffffffffffffffffffffffffffff1673ffffffffffffffffffffffffffffffffffffffff168152602001906001019080831161247e575b5050505050905060008151905060005b818110156125c25760008382815181106124f5576124f4615008565b5b602002602001015190506125088161268b565b600760008373ffffffffffffffffffffffffffffffffffffffff1673ffffffffffffffffffffffffffffffffffffffff16815260200190815260200160002060030160008282546125599190614d5a565b925050819055506125698161404a565b42600760008373ffffffffffffffffffffffffffffffffffffffff1673ffffffffffffffffffffffffffffffffffffffff1681526020019081526020016000206002018190555050806125bb90614f32565b90506124d8565b5082600e6001866125d39190614e3b565b600381106125e4576125e3615008565b5b01819055507fbf93f47eec1d4915667f754aa99eff05fa397b0dd67e5a93057511d953864c9c848460405161261a929190614c35565b60405180910390a150505050565b6006818154811061263857600080fd5b906000526020600020016000915054906101000a900473ffffffffffffffffffffffffffffffffffffffff1681565b60008054906101000a900473ffffffffffffffffffffffffffffffffffffffff1681565b600080600760008473ffffffffffffffffffffffffffffffffffffffff1673ffffffffffffffffffffffffffffffffffffffff16815260200190815260200160002060405180608001604052908160008201548152602001600182015481526020016002820154815260200160038201548152505090506000600860008573ffffffffffffffffffffffffffffffffffffffff1673ffffffffffffffffffffffffffffffffffffffff168152602001908152602001600020805480602002602001604051908101604052809291908181526020016000905b828210156127d857838290600052602060002090600502016040518060a0016040529081600082015481526020016001820154815260200160028201548152602001600382015481526020016004820160009054906101000a900460ff16151515158152505081526020019060010190612763565b5050505090506000805b8360200151811015612b62576000600160009054906101000a900473ffffffffffffffffffffffffffffffffffffffff1673ffffffffffffffffffffffffffffffffffffffff16632c59ff1085848151811061284157612840615008565b5b6020026020010151600001516040518263ffffffff1660e01b81526004016128699190614bf1565b60206040518083038186803b15801561288157600080fd5b505afa158015612895573d6000803e3d6000fd5b505050506040513d601f19601f820116820180604052508101906128b99190614594565b905060008483815181106128d0576128cf615008565b5b60200260200101516080015115801561296557508773ffffffffffffffffffffffffffffffffffffffff166009600087868151811061291257612911615008565b5b602002602001015160000151815260200190815260200160002060009054906101000a900473ffffffffffffffffffffffffffffffffffffffff1673ffffffffffffffffffffffffffffffffffffffff16145b80156129bb5750601160018361297b9190614e3b565b6003811061298c5761298b615008565b5b01548584815181106129a1576129a0615008565b5b602002602001015160600151426129b89190614e3b565b11155b15612b4d57600062278d008685815181106129d9576129d8615008565b5b6020026020010151604001516129ef9190614d5a565b905042811115612a1057866040015142612a099190614e3b565b9150612a23565b866040015181612a209190614e3b565b91505b62015180821115612b4b576000601654600160009054906101000a900473ffffffffffffffffffffffffffffffffffffffff1673ffffffffffffffffffffffffffffffffffffffff1663b524ecab866040518263ffffffff1660e01b8152600401612a8e9190614bf1565b60206040518083038186803b158015612aa657600080fd5b505afa158015612aba573d6000803e3d6000fd5b505050506040513d601f19601f82011682018060405250810190612ade9190614594565b6064600e600188612aef9190614e3b565b60038110612b0057612aff615008565b5b0154612b0c9190614db0565b612b169190614de1565b612b209190614db0565b9050620151808184612b329190614de1565b612b3c9190614db0565b86612b479190614d5a565b9550505b505b50508080612b5a90614f32565b9150506127e2565b50809350505050919050565b600160009054906101000a900473ffffffffffffffffffffffffffffffffffffffff1681565b601460009054906101000a900473ffffffffffffffffffffffffffffffffffffffff1673ffffffffffffffffffffffffffffffffffffffff163373ffffffffffffffffffffffffffffffffffffffff1614612bee57600080fd5b600073ffffffffffffffffffffffffffffffffffffffff168173ffffffffffffffffffffffffffffffffffffffff161415612c5e576040517f08c379a0000000000000000000000000000000000000000000000000000000008152600401612c5590614a71565b60405180910390fd5b80600160006101000a81548173ffffffffffffffffffffffffffffffffffffffff021916908373ffffffffffffffffffffffffffffffffffffffff16021790555050565b60008060006011600060038110612cbc57612cbb615008565b5b01546011600060038110612cd357612cd2615008565b5b01546011600060038110612cea57612ce9615008565b5b0154925092509250909192565b601460009054906101000a900473ffffffffffffffffffffffffffffffffffffffff1673ffffffffffffffffffffffffffffffffffffffff163373ffffffffffffffffffffffffffffffffffffffff1614612d5157600080fd5b60008111612d94576040517f08c379a0000000000000000000000000000000000000000000000000000000008152600401612d8b90614af1565b60405180910390fd5b8060178190555050565b6000600460009054906101000a900473ffffffffffffffffffffffffffffffffffffffff16905090565b601460009054906101000a900473ffffffffffffffffffffffffffffffffffffffff1673ffffffffffffffffffffffffffffffffffffffff163373ffffffffffffffffffffffffffffffffffffffff1614612e2257600080fd5b600073ffffffffffffffffffffffffffffffffffffffff168173ffffffffffffffffffffffffffffffffffffffff161415612e92576040517f08c379a0000000000000000000000000000000000000000000000000000000008152600401612e8990614a71565b60405180910390fd5b80600360006101000a81548173ffffffffffffffffffffffffffffffffffffffff021916908373ffffffffffffffffffffffffffffffffffffffff16021790555050565b600b8160038110612ee657600080fd5b016000915090505481565b600360009054906101000a900473ffffffffffffffffffffffffffffffffffffffff1681565b6000600360009054906101000a900473ffffffffffffffffffffffffffffffffffffffff16905090565b600080600460009054906101000a900473ffffffffffffffffffffffffffffffffffffffff1673ffffffffffffffffffffffffffffffffffffffff166370a08231306040518263ffffffff1660e01b8152600401612f9f9190614902565b60206040518083038186803b158015612fb757600080fd5b505afa158015612fcb573d6000803e3d6000fd5b505050506040513d601f19601f82011682018060405250810190612fef9190614594565b905060165481606460165460016130069190614de1565b6130109190614db0565b61301a9190614de1565b6130249190614db0565b831015613035576000915050613393565b601654816064601654600261304a9190614de1565b6130549190614db0565b61305e9190614de1565b6130689190614db0565b83101561309e576016546017546064866130829190614db0565b61308c9190614de1565b6130969190614db0565b915050613393565b60165481606460165460036130b39190614de1565b6130bd9190614db0565b6130c79190614de1565b6130d19190614db0565b8310156131135760165460026017546130ea9190614de1565b6064866130f79190614db0565b6131019190614de1565b61310b9190614db0565b915050613393565b60165481606460165460046131289190614de1565b6131329190614db0565b61313c9190614de1565b6131469190614db0565b83101561318857601654600360175461315f9190614de1565b60648661316c9190614db0565b6131769190614de1565b6131809190614db0565b915050613393565b601654816064601654600561319d9190614de1565b6131a79190614db0565b6131b19190614de1565b6131bb9190614db0565b8310156131fd5760165460046017546131d49190614de1565b6064866131e19190614db0565b6131eb9190614de1565b6131f59190614db0565b915050613393565b60165481606460165460066132129190614de1565b61321c9190614db0565b6132269190614de1565b6132309190614db0565b8310156132725760165460056017546132499190614de1565b6064866132569190614db0565b6132609190614de1565b61326a9190614db0565b915050613393565b60165481606460165460076132879190614de1565b6132919190614db0565b61329b9190614de1565b6132a59190614db0565b8310156132e75760165460066017546132be9190614de1565b6064866132cb9190614db0565b6132d59190614de1565b6132df9190614db0565b915050613393565b60165481606460165460086132fc9190614de1565b6133069190614db0565b6133109190614de1565b61331a9190614db0565b83101561335c5760165460076017546133339190614de1565b6064866133409190614db0565b61334a9190614de1565b6133549190614db0565b915050613393565b601654600860175461336e9190614de1565b60648661337b9190614db0565b6133859190614de1565b61338f9190614db0565b9150505b92915050565b601460009054906101000a900473ffffffffffffffffffffffffffffffffffffffff1673ffffffffffffffffffffffffffffffffffffffff163373ffffffffffffffffffffffffffffffffffffffff16146133f357600080fd5b600a811015613437576040517f08c379a000000000000000000000000000000000000000000000000000000000815260040161342e90614b51565b60405180910390fd5b8060168190555050565b601460009054906101000a900473ffffffffffffffffffffffffffffffffffffffff1681565b60076020528060005260406000206000915090508060000154908060010154908060020154908060030154905084565b60096020528060005260406000206000915054906101000a900473ffffffffffffffffffffffffffffffffffffffff1681565b600860205281600052604060002081815481106134e657600080fd5b9060005260206000209060050201600091509150508060000154908060010154908060020154908060030154908060040160009054906101000a900460ff16905085565b601860009054906101000a900460ff161561357a576040517f08c379a000000000000000000000000000000000000000000000000000000000815260040161357190614a51565b60405180910390fd5b6001601860006101000a81548160ff0219169083151502179055506000600760003373ffffffffffffffffffffffffffffffffffffffff1673ffffffffffffffffffffffffffffffffffffffff1681526020019081526020016000209050600081600101541161361f576040517f08c379a000000000000000000000000000000000000000000000000000000000815260040161361690614ad1565b60405180910390fd5b600061362a3361268b565b90506136353361404a565b600082600001549050600061364a8383612f41565b9050600086869050905080826136609190614de1565b8461366b9190614e3b565b85600301600082825461367e9190614d5a565b9250508190555060005b8181101561383b573373ffffffffffffffffffffffffffffffffffffffff16600960008a8a858181106136be576136bd615008565b5b90506020020135815260200190815260200160002060009054906101000a900473ffffffffffffffffffffffffffffffffffffffff1673ffffffffffffffffffffffffffffffffffffffff161461371457600080fd5b6000600960008a8a8581811061372d5761372c615008565b5b90506020020135815260200190815260200160002060006101000a81548173ffffffffffffffffffffffffffffffffffffffff021916908373ffffffffffffffffffffffffffffffffffffffff160217905550600160009054906101000a900473ffffffffffffffffffffffffffffffffffffffff1673ffffffffffffffffffffffffffffffffffffffff166323b872dd30338b8b868181106137d3576137d2615008565b5b905060200201356040518463ffffffff1660e01b81526004016137f893929190614946565b600060405180830381600087803b15801561381257600080fd5b505af1158015613826573d6000803e3d6000fd5b505050508061383490614f32565b9050613688565b50808560010160008282546138509190614e3b565b925050819055504285600201819055506000856001015414156139f65760005b6006805490508110156139f4573373ffffffffffffffffffffffffffffffffffffffff16600682815481106138a8576138a7615008565b5b9060005260206000200160009054906101000a900473ffffffffffffffffffffffffffffffffffffffff1673ffffffffffffffffffffffffffffffffffffffff1614156139e357600660016006805490506139039190614e3b565b8154811061391457613913615008565b5b9060005260206000200160009054906101000a900473ffffffffffffffffffffffffffffffffffffffff166006828154811061395357613952615008565b5b9060005260206000200160006101000a81548173ffffffffffffffffffffffffffffffffffffffff021916908373ffffffffffffffffffffffffffffffffffffffff16021790555060068054806139ad576139ac614fd9565b5b6001900381819060005260206000200160006101000a81549073ffffffffffffffffffffffffffffffffffffffff021916905590555b806139ed90614f32565b9050613870565b505b8686604051613a069291906148e9565b60405180910390207f033a2415316072bf4b832ef21089e4a369c5dfe86c72a9822201b88626db900533604051613a3d9190614902565b60405180910390a250505050506000601860006101000a81548160ff0219169083151502179055505050565b6000601654905090565b6000601754905090565b600e8160038110613a8d57600080fd5b016000915090505481565b6000600760003373ffffffffffffffffffffffffffffffffffffffff1673ffffffffffffffffffffffffffffffffffffffff16815260200190815260200160002060030154613ae63361268b565b613af09190614d5a565b9050613afb3361404a565b60008111613b3e576040517f08c379a0000000000000000000000000000000000000000000000000000000008152600401613b3590614b91565b60405180910390fd5b42600760003373ffffffffffffffffffffffffffffffffffffffff1673ffffffffffffffffffffffffffffffffffffffff168152602001908152602001600020600201819055506000600760003373ffffffffffffffffffffffffffffffffffffffff1673ffffffffffffffffffffffffffffffffffffffff168152602001908152602001600020600301819055506000600360009054906101000a900473ffffffffffffffffffffffffffffffffffffffff1673ffffffffffffffffffffffffffffffffffffffff1663b1eb714c836040518263ffffffff1660e01b8152600401613c2a9190614bf1565b602060405180830381600087803b158015613c4457600080fd5b505af1158015613c58573d6000803e3d6000fd5b505050506040513d601f19601f82011682018060405250810190613c7c9190614594565b9050600560009054906101000a900473ffffffffffffffffffffffffffffffffffffffff1673ffffffffffffffffffffffffffffffffffffffff1663a9059cbb33836040518363ffffffff1660e01b8152600401613cdb92919061497d565b602060405180830381600087803b158015613cf557600080fd5b505af1158015613d09573d6000803e3d6000fd5b505050506040513d601f19601f82011682018060405250810190613d2d919061453a565b507f53330f30ecb853d493bc4d50dddaaf9421c4cd9589fb3d5b63cf9ff2867fa55382604051613d5d9190614bf1565b60405180910390a15050565b6000600160009054906101000a900473ffffffffffffffffffffffffffffffffffffffff16905090565b601560009054906101000a900473ffffffffffffffffffffffffffffffffffffffff1681565b601460009054906101000a900473ffffffffffffffffffffffffffffffffffffffff1673ffffffffffffffffffffffffffffffffffffffff163373ffffffffffffffffffffffffffffffffffffffff1614613e1357600080fd5b600073ffffffffffffffffffffffffffffffffffffffff168173ffffffffffffffffffffffffffffffffffffffff161415613e83576040517f08c379a0000000000000000000000000000000000000000000000000000000008152600401613e7a90614a71565b60405180910390fd5b806000806101000a81548173ffffffffffffffffffffffffffffffffffffffff021916908373ffffffffffffffffffffffffffffffffffffffff16021790555050565b60008060009054906101000a900473ffffffffffffffffffffffffffffffffffffffff16905090565b60175481565b6000806000600e600060038110613f0f57613f0e615008565b5b0154600e600060038110613f2657613f25615008565b5b0154600e600060038110613f3d57613f3c615008565b5b0154925092509250909192565b60165481565b600080600760008473ffffffffffffffffffffffffffffffffffffffff1673ffffffffffffffffffffffffffffffffffffffff168152602001908152602001600020600101541415613fe657600760008373ffffffffffffffffffffffffffffffffffffffff1673ffffffffffffffffffffffffffffffffffffffff168152602001908152602001600020600301549050614045565b6000613ff18361268b565b600760008573ffffffffffffffffffffffffffffffffffffffff1673ffffffffffffffffffffffffffffffffffffffff1681526020019081526020016000206003015461403e9190614d5a565b9050809150505b919050565b6000600760008373ffffffffffffffffffffffffffffffffffffffff1673ffffffffffffffffffffffffffffffffffffffff16815260200190815260200160002090506000600860008473ffffffffffffffffffffffffffffffffffffffff1673ffffffffffffffffffffffffffffffffffffffff168152602001908152602001600020905060005b826001015481101561435d576000600160009054906101000a900473ffffffffffffffffffffffffffffffffffffffff1673ffffffffffffffffffffffffffffffffffffffff16632c59ff1084848154811061413257614131615008565b5b9060005260206000209060050201600001546040518263ffffffff1660e01b81526004016141609190614bf1565b60206040518083038186803b15801561417857600080fd5b505afa15801561418c573d6000803e3d6000fd5b505050506040513d601f19601f820116820180604052508101906141b09190614594565b90508282815481106141c5576141c4615008565b5b906000526020600020906005020160040160009054906101000a900460ff16614349578473ffffffffffffffffffffffffffffffffffffffff166009600085858154811061421657614215615008565b5b906000526020600020906005020160000154815260200190815260200160002060009054906101000a900473ffffffffffffffffffffffffffffffffffffffff1673ffffffffffffffffffffffffffffffffffffffff161480156142ca575060116001826142849190614e3b565b6003811061429557614294615008565b5b01548383815481106142aa576142a9615008565b5b906000526020600020906005020160030154426142c79190614e3b565b11155b156143485762278d008383815481106142e6576142e5615008565b5b906000526020600020906005020160020154426143039190614e3b565b111561434757600183838154811061431e5761431d615008565b5b906000526020600020906005020160040160006101000a81548160ff0219169083151502179055505b5b5b50808061435590614f32565b9150506140d3565b50505050565b6040518060a00160405280600081526020016000815260200160008152602001600081526020016000151581525090565b6000813590506143a38161526a565b92915050565b6000815190506143b88161526a565b92915050565b60008083601f8401126143d4576143d361503c565b5b8235905067ffffffffffffffff8111156143f1576143f0615037565b5b60208301915083602082028301111561440d5761440c615041565b5b9250929050565b60008151905061442381615281565b92915050565b60008135905061443881615298565b92915050565b60008151905061444d81615298565b92915050565b60006020828403121561446957614468615050565b5b600061447784828501614394565b91505092915050565b60006020828403121561449657614495615050565b5b60006144a4848285016143a9565b91505092915050565b600080604083850312156144c4576144c3615050565b5b60006144d285828601614394565b92505060206144e385828601614429565b9150509250929050565b6000806020838503121561450457614503615050565b5b600083013567ffffffffffffffff81111561452257614521615046565b5b61452e858286016143be565b92509250509250929050565b6000602082840312156145505761454f615050565b5b600061455e84828501614414565b91505092915050565b60006020828403121561457d5761457c615050565b5b600061458b84828501614429565b91505092915050565b6000602082840312156145aa576145a9615050565b5b60006145b88482850161443e565b91505092915050565b600080604083850312156145d8576145d7615050565b5b60006145e685828601614429565b92505060206145f785828601614429565b9150509250929050565b61460a81614e6f565b82525050565b600061461c8385614d2d565b93507f07ffffffffffffffffffffffffffffffffffffffffffffffffffffffffffffff83111561464f5761464e61504b565b5b602083029250614660838584614f23565b82840190509392505050565b60006146788385614d3e565b93507f07ffffffffffffffffffffffffffffffffffffffffffffffffffffffffffffff8311156146ab576146aa61504b565b5b6020830292506146bc838584614f23565b82840190509392505050565b6146d181614e81565b82525050565b6146e081614eb7565b82525050565b6146ef81614ec9565b82525050565b6146fe81614edb565b82525050565b61470d81614eed565b82525050565b6000614720601883614d49565b915061472b82615055565b602082019050919050565b6000614743601483614d49565b915061474e8261507e565b602082019050919050565b6000614766601583614d49565b9150614771826150a7565b602082019050919050565b6000614789601183614d49565b9150614794826150d0565b602082019050919050565b60006147ac601983614d49565b91506147b7826150f9565b602082019050919050565b60006147cf601283614d49565b91506147da82615122565b602082019050919050565b60006147f2601383614d49565b91506147fd8261514b565b602082019050919050565b6000614815601a83614d49565b915061482082615174565b602082019050919050565b6000614838601b83614d49565b91506148438261519d565b602082019050919050565b600061485b601883614d49565b9150614866826151c6565b602082019050919050565b600061487e601c83614d49565b9150614889826151ef565b602082019050919050565b60006148a1602083614d49565b91506148ac82615218565b602082019050919050565b60006148c4600d83614d49565b91506148cf82615241565b602082019050919050565b6148e381614ead565b82525050565b60006148f682848661466c565b91508190509392505050565b60006020820190506149176000830184614601565b92915050565b60006040820190506149326000830185614601565b61493f6020830184614601565b9392505050565b600060608201905061495b6000830186614601565b6149686020830185614601565b61497560408301846148da565b949350505050565b60006040820190506149926000830185614601565b61499f60208301846148da565b9392505050565b600060208201905081810360008301526149c1818486614610565b90509392505050565b60006020820190506149df60008301846146c8565b92915050565b60006020820190506149fa60008301846146d7565b92915050565b6000602082019050614a1560008301846146e6565b92915050565b6000602082019050614a3060008301846146f5565b92915050565b6000602082019050614a4b6000830184614704565b92915050565b60006020820190508181036000830152614a6a81614713565b9050919050565b60006020820190508181036000830152614a8a81614736565b9050919050565b60006020820190508181036000830152614aaa81614759565b9050919050565b60006020820190508181036000830152614aca8161477c565b9050919050565b60006020820190508181036000830152614aea8161479f565b9050919050565b60006020820190508181036000830152614b0a816147c2565b9050919050565b60006020820190508181036000830152614b2a816147e5565b9050919050565b60006020820190508181036000830152614b4a81614808565b9050919050565b60006020820190508181036000830152614b6a8161482b565b9050919050565b60006020820190508181036000830152614b8a8161484e565b9050919050565b60006020820190508181036000830152614baa81614871565b9050919050565b60006020820190508181036000830152614bca81614894565b9050919050565b60006020820190508181036000830152614bea816148b7565b9050919050565b6000602082019050614c0660008301846148da565b92915050565b6000604082019050614c2160008301856148da565b614c2e6020830184614601565b9392505050565b6000604082019050614c4a60008301856148da565b614c5760208301846148da565b9392505050565b6000606082019050614c7360008301866148da565b614c8060208301856148da565b614c8d60408301846148da565b949350505050565b6000608082019050614caa60008301876148da565b614cb760208301866148da565b614cc460408301856148da565b614cd160608301846148da565b95945050505050565b600060a082019050614cef60008301886148da565b614cfc60208301876148da565b614d0960408301866148da565b614d1660608301856148da565b614d2360808301846146c8565b9695505050505050565b600082825260208201905092915050565b600081905092915050565b600082825260208201905092915050565b6000614d6582614ead565b9150614d7083614ead565b9250827fffffffffffffffffffffffffffffffffffffffffffffffffffffffffffffffff03821115614da557614da4614f7b565b5b828201905092915050565b6000614dbb82614ead565b9150614dc683614ead565b925082614dd657614dd5614faa565b5b828204905092915050565b6000614dec82614ead565b9150614df783614ead565b9250817fffffffffffffffffffffffffffffffffffffffffffffffffffffffffffffffff0483118215151615614e3057614e2f614f7b565b5b828202905092915050565b6000614e4682614ead565b9150614e5183614ead565b925082821015614e6457614e63614f7b565b5b828203905092915050565b6000614e7a82614e8d565b9050919050565b60008115159050919050565b600073ffffffffffffffffffffffffffffffffffffffff82169050919050565b6000819050919050565b6000614ec282614eff565b9050919050565b6000614ed482614eff565b9050919050565b6000614ee682614eff565b9050919050565b6000614ef882614eff565b9050919050565b6000614f0a82614f11565b9050919050565b6000614f1c82614e8d565b9050919050565b82818337600083830152505050565b6000614f3d82614ead565b91507fffffffffffffffffffffffffffffffffffffffffffffffffffffffffffffffff821415614f7057614f6f614f7b565b5b600182019050919050565b7f4e487b7100000000000000000000000000000000000000000000000000000000600052601160045260246000fd5b7f4e487b7100000000000000000000000000000000000000000000000000000000600052601260045260246000fd5b7f4e487b7100000000000000000000000000000000000000000000000000000000600052603160045260246000fd5b7f4e487b7100000000000000000000000000000000000000000000000000000000600052603260045260246000fd5b600080fd5b600080fd5b600080fd5b600080fd5b600080fd5b600080fd5b7f5265656e7472616e742063616c6c206465746563746564210000000000000000600082015250565b7f6164647265737320697320756e646566696e6564000000000000000000000000600082015250565b7f43616e27742052657374616b65204120546f6b656e0000000000000000000000600082015250565b7f4e6674204973204e6f74205374616b6564000000000000000000000000000000600082015250565b7f596f752048617665204e6f20546f6b656e73205374616b656400000000000000600082015250565b7f76616c756520697320756e646566696e65640000000000000000000000000000600082015250565b7f4665652043616e204e6f74204265205a65726f00000000000000000000000000600082015250565b7f417070726f7665205374616b657220466f7220546865204e6674000000000000600082015250565b7f73686f756c642062652061746c65617374203120646563696d616c0000000000600082015250565b7f417070726f7665205374616b696e6720436f6e74726163740000000000000000600082015250565b7f596f752068617665206e6f207265776172647320746f20636c61696d00000000600082015250565b7f43616e2774205374616b6520546f6b656e20596f7520446f6e2774204f776e21600082015250565b7f496e76616c696420496e64657800000000000000000000000000000000000000600082015250565b61527381614e6f565b811461527e57600080fd5b50565b61528a81614e81565b811461529557600080fd5b50565b6152a181614ead565b81146152ac57600080fd5b5056fea2646970667358221220909d0915abb655cfd52d94a5f359601d75a8619f23657633078bb8e60f91731064736f6c63430008070033",
  "linkReferences": {},
  "deployedLinkReferences": {}
}