{
  "_format": "hh-sol-artifact-1",
  "contractName": "CrazyZooToken",
  "sourceName": "contracts/CrazyZooToken.sol",
  "abi": [
    {
      "inputs": [],
      "stateMutability": "nonpayable",
      "type": "constructor"
    },
    {
      "anonymous": false,
      "inputs": [
        {
          "indexed": true,
          "internalType": "address",
          "name": "owner",
          "type": "address"
        },
        {
          "indexed": true,
          "internalType": "address",
          "name": "spender",
          "type": "address"
        },
        {
          "indexed": false,
          "internalType": "uint256",
          "name": "value",
          "type": "uint256"
        }
      ],
      "name": "Approval",
      "type": "event"
    },
    {
      "anonymous": false,
      "inputs": [
        {
          "indexed": true,
          "internalType": "address",
          "name": "newAddress",
          "type": "address"
        }
      ],
      "name": "Deprecate",
      "type": "event"
    },
    {
      "anonymous": false,
      "inputs": [
        {
          "indexed": true,
          "internalType": "address",
          "name": "nftStakingAddr",
          "type": "address"
        },
        {
          "indexed": true,
          "internalType": "address",
          "name": "marketingAddr",
          "type": "address"
        }
      ],
      "name": "FeeCollectors",
      "type": "event"
    },
    {
      "anonymous": false,
      "inputs": [
        {
          "indexed": false,
          "internalType": "uint256",
          "name": "_feeMarketing",
          "type": "uint256"
        }
      ],
      "name": "FeeMarketing",
      "type": "event"
    },
    {
      "anonymous": false,
      "inputs": [
        {
          "indexed": false,
          "internalType": "uint256",
          "name": "_feeNftStaking",
          "type": "uint256"
        }
      ],
      "name": "FeeNftStaking",
      "type": "event"
    },
    {
      "anonymous": false,
      "inputs": [
        {
          "indexed": false,
          "internalType": "uint256",
          "name": "_feeReferrer",
          "type": "uint256"
        }
      ],
      "name": "FeeReferrer",
      "type": "event"
    },
    {
      "anonymous": false,
      "inputs": [
        {
          "indexed": false,
          "internalType": "uint8",
          "name": "num",
          "type": "uint8"
        }
      ],
      "name": "From",
      "type": "event"
    },
    {
      "anonymous": false,
      "inputs": [
        {
          "indexed": false,
          "internalType": "address",
          "name": "_from",
          "type": "address"
        }
      ],
      "name": "FromUniswap",
      "type": "event"
    },
    {
      "anonymous": false,
      "inputs": [
        {
          "indexed": false,
          "internalType": "address",
          "name": "newStakingContractAddress",
          "type": "address"
        }
      ],
      "name": "MarketingFeeAddressUpdated",
      "type": "event"
    },
    {
      "anonymous": false,
      "inputs": [
        {
          "indexed": false,
          "internalType": "uint256",
          "name": "_marketingFee",
          "type": "uint256"
        }
      ],
      "name": "MarketingFeeUpdated",
      "type": "event"
    },
    {
      "anonymous": false,
      "inputs": [
        {
          "indexed": false,
          "internalType": "address",
          "name": "_minter",
          "type": "address"
        }
      ],
      "name": "MinterUpdated",
      "type": "event"
    },
    {
      "anonymous": false,
      "inputs": [
        {
          "indexed": false,
          "internalType": "address",
          "name": "newStakingContractAddress",
          "type": "address"
        }
      ],
      "name": "NftStakingFeeAddressUpdated",
      "type": "event"
    },
    {
      "anonymous": false,
      "inputs": [
        {
          "indexed": false,
          "internalType": "uint8",
          "name": "num",
          "type": "uint8"
        }
      ],
      "name": "None",
      "type": "event"
    },
    {
      "anonymous": false,
      "inputs": [
        {
          "indexed": false,
          "internalType": "uint256",
          "name": "feeLiquidityFee",
          "type": "uint256"
        },
        {
          "indexed": false,
          "internalType": "uint256",
          "name": "feeTeam",
          "type": "uint256"
        }
      ],
      "name": "Params",
      "type": "event"
    },
    {
      "anonymous": false,
      "inputs": [],
      "name": "Pause",
      "type": "event"
    },
    {
      "anonymous": false,
      "inputs": [
        {
          "indexed": false,
          "internalType": "uint256",
          "name": "_referralFee",
          "type": "uint256"
        }
      ],
      "name": "ReferralFeeUpdated",
      "type": "event"
    },
    {
      "anonymous": false,
      "inputs": [
        {
          "indexed": false,
          "internalType": "address",
          "name": "_referrer",
          "type": "address"
        },
        {
          "indexed": false,
          "internalType": "address",
          "name": "_referral",
          "type": "address"
        }
      ],
      "name": "ReferralUpdated",
      "type": "event"
    },
    {
      "anonymous": false,
      "inputs": [
        {
          "indexed": false,
          "internalType": "uint256",
          "name": "_stakingFee",
          "type": "uint256"
        }
      ],
      "name": "StakingFeeUpdated",
      "type": "event"
    },
    {
      "anonymous": false,
      "inputs": [
        {
          "indexed": false,
          "internalType": "uint8",
          "name": "num",
          "type": "uint8"
        }
      ],
      "name": "To",
      "type": "event"
    },
    {
      "anonymous": false,
      "inputs": [
        {
          "indexed": true,
          "internalType": "address",
          "name": "from",
          "type": "address"
        },
        {
          "indexed": true,
          "internalType": "address",
          "name": "to",
          "type": "address"
        },
        {
          "indexed": false,
          "internalType": "uint256",
          "name": "value",
          "type": "uint256"
        }
      ],
      "name": "Transfer",
      "type": "event"
    },
    {
      "anonymous": false,
      "inputs": [],
      "name": "Unpause",
      "type": "event"
    },
    {
      "anonymous": false,
      "inputs": [
        {
          "indexed": false,
          "internalType": "uint256",
          "name": "fee",
          "type": "uint256"
        }
      ],
      "name": "checkFees",
      "type": "event"
    },
    {
      "anonymous": false,
      "inputs": [
        {
          "indexed": false,
          "internalType": "address",
          "name": "_to",
          "type": "address"
        }
      ],
      "name": "checkUniswap",
      "type": "event"
    },
    {
      "anonymous": false,
      "inputs": [
        {
          "indexed": false,
          "internalType": "address",
          "name": "upgradedAddress",
          "type": "address"
        }
      ],
      "name": "newupgradedAddressUpdated",
      "type": "event"
    },
    {
      "anonymous": false,
      "inputs": [
        {
          "indexed": false,
          "internalType": "address",
          "name": "_to",
          "type": "address"
        }
      ],
      "name": "toUniswap",
      "type": "event"
    },
    {
      "inputs": [],
      "name": "Decimal",
      "outputs": [
        {
          "internalType": "uint256",
          "name": "",
          "type": "uint256"
        }
      ],
      "stateMutability": "view",
      "type": "function"
    },
    {
      "inputs": [],
      "name": "MAX_UINT",
      "outputs": [
        {
          "internalType": "uint256",
          "name": "",
          "type": "uint256"
        }
      ],
      "stateMutability": "view",
      "type": "function"
    },
    {
      "inputs": [],
      "name": "MarketingFee",
      "outputs": [
        {
          "internalType": "uint256",
          "name": "",
          "type": "uint256"
        }
      ],
      "stateMutability": "view",
      "type": "function"
    },
    {
      "inputs": [],
      "name": "ReferrarFee",
      "outputs": [
        {
          "internalType": "uint256",
          "name": "",
          "type": "uint256"
        }
      ],
      "stateMutability": "view",
      "type": "function"
    },
    {
      "inputs": [
        {
          "internalType": "address",
          "name": "_referrer",
          "type": "address"
        },
        {
          "internalType": "address",
          "name": "_referral",
          "type": "address"
        }
      ],
      "name": "SetReferral",
      "outputs": [],
      "stateMutability": "nonpayable",
      "type": "function"
    },
    {
      "inputs": [],
      "name": "StakingContractAddress",
      "outputs": [
        {
          "internalType": "address",
          "name": "",
          "type": "address"
        }
      ],
      "stateMutability": "view",
      "type": "function"
    },
    {
      "inputs": [],
      "name": "StakingFee",
      "outputs": [
        {
          "internalType": "uint256",
          "name": "",
          "type": "uint256"
        }
      ],
      "stateMutability": "view",
      "type": "function"
    },
    {
      "inputs": [
        {
          "internalType": "address",
          "name": "_user",
          "type": "address"
        },
        {
          "internalType": "uint256",
          "name": "value",
          "type": "uint256"
        }
      ],
      "name": "_calculateFee",
      "outputs": [
        {
          "internalType": "uint256",
          "name": "_StakingFees",
          "type": "uint256"
        },
        {
          "internalType": "uint256",
          "name": "_MarketingFee",
          "type": "uint256"
        },
        {
          "internalType": "uint256",
          "name": "_ReferrerFee",
          "type": "uint256"
        },
        {
          "internalType": "uint256",
          "name": "_fee",
          "type": "uint256"
        }
      ],
      "stateMutability": "view",
      "type": "function"
    },
    {
      "inputs": [
        {
          "internalType": "address",
          "name": "",
          "type": "address"
        }
      ],
      "name": "_isMinter",
      "outputs": [
        {
          "internalType": "bool",
          "name": "",
          "type": "bool"
        }
      ],
      "stateMutability": "view",
      "type": "function"
    },
    {
      "inputs": [
        {
          "internalType": "uint256",
          "name": "_feeNftStaking",
          "type": "uint256"
        },
        {
          "internalType": "uint256",
          "name": "_feeMarketing",
          "type": "uint256"
        },
        {
          "internalType": "uint256",
          "name": "_feeReferrer",
          "type": "uint256"
        },
        {
          "internalType": "address",
          "name": "_user",
          "type": "address"
        }
      ],
      "name": "_shareFee",
      "outputs": [],
      "stateMutability": "nonpayable",
      "type": "function"
    },
    {
      "inputs": [],
      "name": "_totalSupply",
      "outputs": [
        {
          "internalType": "uint256",
          "name": "",
          "type": "uint256"
        }
      ],
      "stateMutability": "view",
      "type": "function"
    },
    {
      "inputs": [
        {
          "internalType": "address",
          "name": "_owner",
          "type": "address"
        },
        {
          "internalType": "address",
          "name": "_spender",
          "type": "address"
        }
      ],
      "name": "allowance",
      "outputs": [
        {
          "internalType": "uint256",
          "name": "remaining",
          "type": "uint256"
        }
      ],
      "stateMutability": "view",
      "type": "function"
    },
    {
      "inputs": [
        {
          "internalType": "address",
          "name": "",
          "type": "address"
        },
        {
          "internalType": "address",
          "name": "",
          "type": "address"
        }
      ],
      "name": "allowed",
      "outputs": [
        {
          "internalType": "uint256",
          "name": "",
          "type": "uint256"
        }
      ],
      "stateMutability": "view",
      "type": "function"
    },
    {
      "inputs": [
        {
          "internalType": "address",
          "name": "_spender",
          "type": "address"
        },
        {
          "internalType": "uint256",
          "name": "_value",
          "type": "uint256"
        }
      ],
      "name": "approve",
      "outputs": [],
      "stateMutability": "nonpayable",
      "type": "function"
    },
    {
      "inputs": [
        {
          "internalType": "address",
          "name": "who",
          "type": "address"
        }
      ],
      "name": "balanceOf",
      "outputs": [
        {
          "internalType": "uint256",
          "name": "",
          "type": "uint256"
        }
      ],
      "stateMutability": "view",
      "type": "function"
    },
    {
      "inputs": [
        {
          "internalType": "address",
          "name": "",
          "type": "address"
        }
      ],
      "name": "balances",
      "outputs": [
        {
          "internalType": "uint256",
          "name": "",
          "type": "uint256"
        }
      ],
      "stateMutability": "view",
      "type": "function"
    },
    {
      "inputs": [
        {
          "internalType": "uint256",
          "name": "amount",
          "type": "uint256"
        }
      ],
      "name": "burn",
      "outputs": [],
      "stateMutability": "nonpayable",
      "type": "function"
    },
    {
      "inputs": [],
      "name": "decimals",
      "outputs": [
        {
          "internalType": "uint256",
          "name": "",
          "type": "uint256"
        }
      ],
      "stateMutability": "view",
      "type": "function"
    },
    {
      "inputs": [
        {
          "internalType": "address",
          "name": "_upgradedAddress",
          "type": "address"
        }
      ],
      "name": "deprecate",
      "outputs": [],
      "stateMutability": "nonpayable",
      "type": "function"
    },
    {
      "inputs": [],
      "name": "deprecated",
      "outputs": [
        {
          "internalType": "bool",
          "name": "",
          "type": "bool"
        }
      ],
      "stateMutability": "view",
      "type": "function"
    },
    {
      "inputs": [],
      "name": "getFeeCollectors",
      "outputs": [
        {
          "internalType": "address",
          "name": "",
          "type": "address"
        },
        {
          "internalType": "address",
          "name": "",
          "type": "address"
        }
      ],
      "stateMutability": "view",
      "type": "function"
    },
    {
      "inputs": [],
      "name": "getFees",
      "outputs": [
        {
          "internalType": "uint256",
          "name": "",
          "type": "uint256"
        },
        {
          "internalType": "uint256",
          "name": "",
          "type": "uint256"
        },
        {
          "internalType": "uint256",
          "name": "",
          "type": "uint256"
        }
      ],
      "stateMutability": "view",
      "type": "function"
    },
    {
      "inputs": [],
      "name": "getUpgradedAddress",
      "outputs": [
        {
          "internalType": "address",
          "name": "",
          "type": "address"
        }
      ],
      "stateMutability": "view",
      "type": "function"
    },
    {
      "inputs": [],
      "name": "isDeprecated",
      "outputs": [
        {
          "internalType": "bool",
          "name": "",
          "type": "bool"
        }
      ],
      "stateMutability": "view",
      "type": "function"
    },
    {
      "inputs": [
        {
          "internalType": "address",
          "name": "_minter",
          "type": "address"
        }
      ],
      "name": "isMinter",
      "outputs": [
        {
          "internalType": "bool",
          "name": "",
          "type": "bool"
        }
      ],
      "stateMutability": "view",
      "type": "function"
    },
    {
      "inputs": [
        {
          "internalType": "address",
          "name": "_referrer",
          "type": "address"
        },
        {
          "internalType": "address",
          "name": "_referral",
          "type": "address"
        }
      ],
      "name": "isReferralAlreadyPresent",
      "outputs": [
        {
          "internalType": "bool",
          "name": "",
          "type": "bool"
        }
      ],
      "stateMutability": "view",
      "type": "function"
    },
    {
      "inputs": [],
      "name": "marketingWallet",
      "outputs": [
        {
          "internalType": "address",
          "name": "",
          "type": "address"
        }
      ],
      "stateMutability": "view",
      "type": "function"
    },
    {
      "inputs": [
        {
          "internalType": "address",
          "name": "to",
          "type": "address"
        },
        {
          "internalType": "uint256",
          "name": "amount",
          "type": "uint256"
        }
      ],
      "name": "mint",
      "outputs": [],
      "stateMutability": "nonpayable",
      "type": "function"
    },
    {
      "inputs": [],
      "name": "multiplier",
      "outputs": [
        {
          "internalType": "uint256",
          "name": "",
          "type": "uint256"
        }
      ],
      "stateMutability": "view",
      "type": "function"
    },
    {
      "inputs": [
        {
          "internalType": "address",
          "name": "_myAddress",
          "type": "address"
        }
      ],
      "name": "myReferrals",
      "outputs": [
        {
          "internalType": "address[]",
          "name": "",
          "type": "address[]"
        }
      ],
      "stateMutability": "view",
      "type": "function"
    },
    {
      "inputs": [
        {
          "internalType": "address",
          "name": "_myAddress",
          "type": "address"
        }
      ],
      "name": "myReferrer",
      "outputs": [
        {
          "internalType": "address",
          "name": "",
          "type": "address"
        }
      ],
      "stateMutability": "view",
      "type": "function"
    },
    {
      "inputs": [],
      "name": "name",
      "outputs": [
        {
          "internalType": "string",
          "name": "",
          "type": "string"
        }
      ],
      "stateMutability": "view",
      "type": "function"
    },
    {
      "inputs": [],
      "name": "owner",
      "outputs": [
        {
          "internalType": "address",
          "name": "",
          "type": "address"
        }
      ],
      "stateMutability": "view",
      "type": "function"
    },
    {
      "inputs": [],
      "name": "pause",
      "outputs": [],
      "stateMutability": "nonpayable",
      "type": "function"
    },
    {
      "inputs": [],
      "name": "paused",
      "outputs": [
        {
          "internalType": "bool",
          "name": "",
          "type": "bool"
        }
      ],
      "stateMutability": "view",
      "type": "function"
    },
    {
      "inputs": [
        {
          "internalType": "address",
          "name": "",
          "type": "address"
        },
        {
          "internalType": "uint256",
          "name": "",
          "type": "uint256"
        }
      ],
      "name": "referrals",
      "outputs": [
        {
          "internalType": "address",
          "name": "",
          "type": "address"
        }
      ],
      "stateMutability": "view",
      "type": "function"
    },
    {
      "inputs": [
        {
          "internalType": "address",
          "name": "",
          "type": "address"
        }
      ],
      "name": "referrer",
      "outputs": [
        {
          "internalType": "address",
          "name": "",
          "type": "address"
        }
      ],
      "stateMutability": "view",
      "type": "function"
    },
    {
      "inputs": [
        {
          "internalType": "uint256",
          "name": "_marketingFee",
          "type": "uint256"
        }
      ],
      "name": "setMarketingFee",
      "outputs": [],
      "stateMutability": "nonpayable",
      "type": "function"
    },
    {
      "inputs": [
        {
          "internalType": "address",
          "name": "newMarketingWallet",
          "type": "address"
        }
      ],
      "name": "setMarketingWallet",
      "outputs": [],
      "stateMutability": "nonpayable",
      "type": "function"
    },
    {
      "inputs": [
        {
          "internalType": "address",
          "name": "_minter",
          "type": "address"
        }
      ],
      "name": "setMinter",
      "outputs": [],
      "stateMutability": "nonpayable",
      "type": "function"
    },
    {
      "inputs": [
        {
          "internalType": "uint256",
          "name": "_referralFee",
          "type": "uint256"
        }
      ],
      "name": "setReferralFee",
      "outputs": [],
      "stateMutability": "nonpayable",
      "type": "function"
    },
    {
      "inputs": [
        {
          "internalType": "address",
          "name": "newStakingContractAddress",
          "type": "address"
        }
      ],
      "name": "setStakingContractAddress",
      "outputs": [],
      "stateMutability": "nonpayable",
      "type": "function"
    },
    {
      "inputs": [
        {
          "internalType": "uint256",
          "name": "_stakingFee",
          "type": "uint256"
        }
      ],
      "name": "setStakingFee",
      "outputs": [],
      "stateMutability": "nonpayable",
      "type": "function"
    },
    {
      "inputs": [
        {
          "internalType": "address",
          "name": "_newupgradedAddress",
          "type": "address"
        }
      ],
      "name": "setUpgradedContractAddress",
      "outputs": [],
      "stateMutability": "nonpayable",
      "type": "function"
    },
    {
      "inputs": [],
      "name": "symbol",
      "outputs": [
        {
          "internalType": "string",
          "name": "",
          "type": "string"
        }
      ],
      "stateMutability": "view",
      "type": "function"
    },
    {
      "inputs": [],
      "name": "totalSupply",
      "outputs": [
        {
          "internalType": "uint256",
          "name": "",
          "type": "uint256"
        }
      ],
      "stateMutability": "view",
      "type": "function"
    },
    {
      "inputs": [
        {
          "internalType": "address",
          "name": "_to",
          "type": "address"
        },
        {
          "internalType": "uint256",
          "name": "_value",
          "type": "uint256"
        }
      ],
      "name": "transfer",
      "outputs": [],
      "stateMutability": "nonpayable",
      "type": "function"
    },
    {
      "inputs": [
        {
          "internalType": "address",
          "name": "_from",
          "type": "address"
        },
        {
          "internalType": "address",
          "name": "_to",
          "type": "address"
        },
        {
          "internalType": "uint256",
          "name": "_value",
          "type": "uint256"
        }
      ],
      "name": "transferFrom",
      "outputs": [],
      "stateMutability": "nonpayable",
      "type": "function"
    },
    {
      "inputs": [
        {
          "internalType": "address",
          "name": "newOwner",
          "type": "address"
        }
      ],
      "name": "transferOwnership",
      "outputs": [],
      "stateMutability": "nonpayable",
      "type": "function"
    },
    {
      "inputs": [],
      "name": "unpause",
      "outputs": [],
      "stateMutability": "nonpayable",
      "type": "function"
    },
    {
      "inputs": [],
      "name": "upgradedAddress",
      "outputs": [
        {
          "internalType": "address",
          "name": "",
          "type": "address"
        }
      ],
      "stateMutability": "view",
      "type": "function"
    }
  ],
  "bytecode": "0x608060405260008060146101000a81548160ff0219169083151502179055506216e3606003556216e360600455622dc6c0600555620f4240600e553480156200004757600080fd5b50336000806101000a81548173ffffffffffffffffffffffffffffffffffffffff021916908373ffffffffffffffffffffffffffffffffffffffff16021790555067011c37937e0800006001819055506040518060400160405280600681526020017f6672696461790000000000000000000000000000000000000000000000000000815250600b9080519060200190620000e4929190620001fa565b506040518060400160405280600681526020017f6672696461790000000000000000000000000000000000000000000000000000815250600c908051906020019062000132929190620001fa565b506006600d81905550600154600260003373ffffffffffffffffffffffffffffffffffffffff1673ffffffffffffffffffffffffffffffffffffffff168152602001908152602001600020819055506000600f60146101000a81548160ff0219169083151502179055506001601060003373ffffffffffffffffffffffffffffffffffffffff1673ffffffffffffffffffffffffffffffffffffffff16815260200190815260200160002060006101000a81548160ff0219169083151502179055506200030f565b8280546200020890620002aa565b90600052602060002090601f0160209004810192826200022c576000855562000278565b82601f106200024757805160ff191683800117855562000278565b8280016001018555821562000278579182015b82811115620002775782518255916020019190600101906200025a565b5b5090506200028791906200028b565b5090565b5b80821115620002a65760008160009055506001016200028c565b5090565b60006002820490506001821680620002c357607f821691505b60208210811415620002da57620002d9620002e0565b5b50919050565b7f4e487b7100000000000000000000000000000000000000000000000000000000600052602260045260246000fd5b6141b1806200031f6000396000f3fe608060405234801561001057600080fd5b50600436106102f15760003560e01c80635d098b381161019d578063c78e139a116100e9578063e5df0020116100a2578063ec0e59911161007c578063ec0e5991146108fd578063f20936121461091b578063f2fde38b1461094e578063fca3b5aa1461096a576102f1565b8063e5df00201461086d578063e697b5d81461089d578063e81758c6146108cd576102f1565b8063c78e139a146107a8578063d7588576146107c4578063db8d55f1146107e0578063dd62ed3e14610800578063dece010214610830578063e5b5019a1461084f576102f1565b80638c9f99ce1161015657806395d89b411161013057806395d89b4114610720578063a9059cbb1461073e578063aa271e1a1461075a578063c71782301461078a576102f1565b80638c9f99ce146106c65780638da5cb5b146106e45780639105f62014610702576102f1565b80635d098b381461061a578063625e764c1461063657806370a0823114610652578063713494d71461068257806375f0a8741461069e5780638456cb59146106bc576102f1565b80632cf003c21161025c578063410dbf7e1161021557806348d0a51b116101ef57806348d0a51b1461057e5780634ce8364a146105ae5780635c658165146105cc5780635c975abb146105fc576102f1565b8063410dbf7e14610516578063420b9efc1461053257806342966c6814610562576102f1565b80632cf003c214610468578063313ce567146104985780633576c10a146104b65780633eaaf86b146104d25780633f4ba83a146104f057806340c10f19146104fa576102f1565b80631b3ed722116102ae5780631b3ed722146103a65780631c1f8aa3146103c45780631fe50c39146103e057806323b872dd146103fe57806326976e3f1461041a57806327e235e314610438576102f1565b806306fdde03146102f65780630753c30c14610314578063095ea7b3146103305780630e136b191461034c5780630ea9f8161461036a57806318160ddd14610388575b600080fd5b6102fe610986565b60405161030b91906138e3565b60405180910390f35b61032e60048036038101906103299190613396565b610a14565b005b61034a60048036038101906103459190613456565b610b7e565b005b610354610c58565b60405161036191906138c8565b60405180910390f35b610372610c6b565b60405161037f9190613a85565b60405180910390f35b610390610c71565b60405161039d9190613a85565b60405180910390f35b6103ae610d38565b6040516103bb9190613a85565b60405180910390f35b6103de60048036038101906103d99190613396565b610d3e565b005b6103e8610e81565b6040516103f59190613a85565b60405180910390f35b61041860048036038101906104139190613403565b610e8b565b005b610422610f63565b60405161042f91906137e6565b60405180910390f35b610452600480360381019061044d9190613396565b610f89565b60405161045f9190613a85565b60405180910390f35b610482600480360381019061047d9190613396565b610fa1565b60405161048f91906137e6565b60405180910390f35b6104a0610fd4565b6040516104ad9190613a85565b60405180910390f35b6104d060048036038101906104cb91906133c3565b610fda565b005b6104da611352565b6040516104e79190613a85565b60405180910390f35b6104f8611358565b005b610514600480360381019061050f9190613456565b611411565b005b610530600480360381019061052b9190613496565b61167c565b005b61054c600480360381019061054791906133c3565b611758565b60405161055991906138c8565b60405180910390f35b61057c60048036038101906105779190613496565b611986565b005b61059860048036038101906105939190613396565b611b73565b6040516105a591906138a6565b60405180910390f35b6105b6611c40565b6040516105c391906137e6565b60405180910390f35b6105e660048036038101906105e191906133c3565b611c66565b6040516105f39190613a85565b60405180910390f35b610604611c8b565b60405161061191906138c8565b60405180910390f35b610634600480360381019061062f9190613396565b611c9e565b005b610650600480360381019061064b9190613496565b611de1565b005b61066c60048036038101906106679190613396565b611ebd565b6040516106799190613a85565b60405180910390f35b61069c60048036038101906106979190613496565b611f97565b005b6106a6612073565b6040516106b391906137e6565b60405180910390f35b6106c4612099565b005b6106ce612154565b6040516106db91906137e6565b60405180910390f35b6106ec61217e565b6040516106f991906137e6565b60405180910390f35b61070a6121a2565b6040516107179190613a85565b60405180910390f35b6107286121a8565b60405161073591906138e3565b60405180910390f35b61075860048036038101906107539190613456565b612236565b005b610774600480360381019061076f9190613396565b61230a565b60405161078191906138c8565b60405180910390f35b610792612360565b60405161079f91906138c8565b60405180910390f35b6107c260048036038101906107bd9190613396565b612377565b005b6107de60048036038101906107d991906134f0565b6124dc565b005b6107e86125c4565b6040516107f793929190613aa0565b60405180910390f35b61081a600480360381019061081591906133c3565b6125dd565b6040516108279190613a85565b60405180910390f35b6108386126bb565b604051610846929190613801565b60405180910390f35b61085761270c565b6040516108649190613a85565b60405180910390f35b61088760048036038101906108829190613396565b612730565b60405161089491906138c8565b60405180910390f35b6108b760048036038101906108b29190613456565b612750565b6040516108c491906137e6565b60405180910390f35b6108e760048036038101906108e29190613396565b61279e565b6040516108f491906137e6565b60405180910390f35b610905612807565b6040516109129190613a85565b60405180910390f35b61093560048036038101906109309190613456565b61280d565b6040516109459493929190613ad7565b60405180910390f35b61096860048036038101906109639190613396565b612a57565b005b610984600480360381019061097f9190613396565b612b27565b005b600b805461099390613d01565b80601f01602080910402602001604051908101604052809291908181526020018280546109bf90613d01565b8015610a0c5780601f106109e157610100808354040283529160200191610a0c565b820191906000526020600020905b8154815290600101906020018083116109ef57829003601f168201915b505050505081565b60008054906101000a900473ffffffffffffffffffffffffffffffffffffffff1673ffffffffffffffffffffffffffffffffffffffff163373ffffffffffffffffffffffffffffffffffffffff1614610a6c57600080fd5b600073ffffffffffffffffffffffffffffffffffffffff168173ffffffffffffffffffffffffffffffffffffffff161415610adc576040517f08c379a0000000000000000000000000000000000000000000000000000000008152600401610ad3906139c5565b60405180910390fd5b6001600f60146101000a81548160ff02191690831515021790555080600f60006101000a81548173ffffffffffffffffffffffffffffffffffffffff021916908373ffffffffffffffffffffffffffffffffffffffff1602179055508073ffffffffffffffffffffffffffffffffffffffff167fcc358699805e9a8b7f77b522628c7cb9abd07d9efb86b6fb616af1609036a99e60405160405180910390a250565b6040600481610b8d9190613b71565b60003690501015610b9d57600080fd5b600f60149054906101000a900460ff1615610c4857600f60009054906101000a900473ffffffffffffffffffffffffffffffffffffffff1673ffffffffffffffffffffffffffffffffffffffff1663aee92d333385856040518463ffffffff1660e01b8152600401610c119392919061386f565b600060405180830381600087803b158015610c2b57600080fd5b505af1158015610c3f573d6000803e3d6000fd5b50505050610c53565b610c528383612c81565b5b505050565b600f60149054906101000a900460ff1681565b60055481565b6000600f60149054906101000a900460ff1615610d2f57600f60009054906101000a900473ffffffffffffffffffffffffffffffffffffffff1673ffffffffffffffffffffffffffffffffffffffff166318160ddd6040518163ffffffff1660e01b815260040160206040518083038186803b158015610cf057600080fd5b505afa158015610d04573d6000803e3d6000fd5b505050506040513d601f19601f82011682018060405250810190610d2891906134c3565b9050610d35565b60015490505b90565b600e5481565b60008054906101000a900473ffffffffffffffffffffffffffffffffffffffff1673ffffffffffffffffffffffffffffffffffffffff163373ffffffffffffffffffffffffffffffffffffffff1614610d9657600080fd5b600073ffffffffffffffffffffffffffffffffffffffff168173ffffffffffffffffffffffffffffffffffffffff161415610e06576040517f08c379a0000000000000000000000000000000000000000000000000000000008152600401610dfd90613a05565b60405180910390fd5b80600660006101000a81548173ffffffffffffffffffffffffffffffffffffffff021916908373ffffffffffffffffffffffffffffffffffffffff1602179055507f7efd1cdef3088bea36d0bd18edcfeabd212936ba4cc39c12275eb4f082bd880081604051610e7691906137e6565b60405180910390a150565b6000600d54905090565b600060149054906101000a900460ff1615610ea557600080fd5b600f60149054906101000a900460ff1615610f5257600f60009054906101000a900473ffffffffffffffffffffffffffffffffffffffff1673ffffffffffffffffffffffffffffffffffffffff16638b477adb338585856040518563ffffffff1660e01b8152600401610f1b949392919061382a565b600060405180830381600087803b158015610f3557600080fd5b505af1158015610f49573d6000803e3d6000fd5b50505050610f5e565b610f5d838383612e23565b5b505050565b600f60009054906101000a900473ffffffffffffffffffffffffffffffffffffffff1681565b60026020528060005260406000206000915090505481565b60086020528060005260406000206000915054906101000a900473ffffffffffffffffffffffffffffffffffffffff1681565b600d5481565b600073ffffffffffffffffffffffffffffffffffffffff168273ffffffffffffffffffffffffffffffffffffffff16141561104a576040517f08c379a000000000000000000000000000000000000000000000000000000000815260040161104190613985565b60405180910390fd5b600073ffffffffffffffffffffffffffffffffffffffff168173ffffffffffffffffffffffffffffffffffffffff1614156110ba576040517f08c379a00000000000000000000000000000000000000000000000000000000081526004016110b190613945565b60405180910390fd5b8073ffffffffffffffffffffffffffffffffffffffff168273ffffffffffffffffffffffffffffffffffffffff161415611129576040517f08c379a000000000000000000000000000000000000000000000000000000000815260040161112090613a25565b60405180910390fd5b600073ffffffffffffffffffffffffffffffffffffffff16600860008373ffffffffffffffffffffffffffffffffffffffff1673ffffffffffffffffffffffffffffffffffffffff16815260200190815260200160002060009054906101000a900473ffffffffffffffffffffffffffffffffffffffff1673ffffffffffffffffffffffffffffffffffffffff16146111f7576040517f08c379a00000000000000000000000000000000000000000000000000000000081526004016111ee90613965565b60405180910390fd5b600960008373ffffffffffffffffffffffffffffffffffffffff1673ffffffffffffffffffffffffffffffffffffffff168152602001908152602001600020819080600181540180825580915050600190039060005260206000200160009091909190916101000a81548173ffffffffffffffffffffffffffffffffffffffff021916908373ffffffffffffffffffffffffffffffffffffffff16021790555081600860008373ffffffffffffffffffffffffffffffffffffffff1673ffffffffffffffffffffffffffffffffffffffff16815260200190815260200160002060006101000a81548173ffffffffffffffffffffffffffffffffffffffff021916908373ffffffffffffffffffffffffffffffffffffffff1602179055507feefe1ce2782e4ba3bbccd79617fae74979fa22005f22f7075c0910cd51c8ffd98282604051611346929190613801565b60405180910390a15050565b60015481565b60008054906101000a900473ffffffffffffffffffffffffffffffffffffffff1673ffffffffffffffffffffffffffffffffffffffff163373ffffffffffffffffffffffffffffffffffffffff16146113b057600080fd5b600060149054906101000a900460ff166113c957600080fd5b60008060146101000a81548160ff0219169083151502179055507f7805862f689e2f13df9f062ff482ad3ad112aca9e0847911ed832e158c525b3360405160405180910390a1565b601060003373ffffffffffffffffffffffffffffffffffffffff1673ffffffffffffffffffffffffffffffffffffffff16815260200190815260200160002060009054906101000a900460ff16806114b4575060008054906101000a900473ffffffffffffffffffffffffffffffffffffffff1673ffffffffffffffffffffffffffffffffffffffff163373ffffffffffffffffffffffffffffffffffffffff16145b6114f3576040517f08c379a00000000000000000000000000000000000000000000000000000000081526004016114ea90613a45565b60405180910390fd5b600154816001546115049190613b71565b1161150e57600080fd5b600260008373ffffffffffffffffffffffffffffffffffffffff1673ffffffffffffffffffffffffffffffffffffffff1681526020019081526020016000205481600260008573ffffffffffffffffffffffffffffffffffffffff1673ffffffffffffffffffffffffffffffffffffffff168152602001908152602001600020546115999190613b71565b116115a357600080fd5b80600260008473ffffffffffffffffffffffffffffffffffffffff1673ffffffffffffffffffffffffffffffffffffffff16815260200190815260200160002060008282546115f29190613b71565b92505081905550806001600082825461160b9190613b71565b925050819055508173ffffffffffffffffffffffffffffffffffffffff16600073ffffffffffffffffffffffffffffffffffffffff167fddf252ad1be2c89b69c2b068fc378daa952ba7f163c4a11628f55a4df523b3ef836040516116709190613a85565b60405180910390a35050565b60008054906101000a900473ffffffffffffffffffffffffffffffffffffffff1673ffffffffffffffffffffffffffffffffffffffff163373ffffffffffffffffffffffffffffffffffffffff16146116d457600080fd5b60008111611717576040517f08c379a000000000000000000000000000000000000000000000000000000000815260040161170e906139e5565b60405180910390fd5b806003819055507f95e173ed06087159ed2a97fa9dd2dd3669417289e073faffcd5e78855e118f258160405161174d9190613a85565b60405180910390a150565b60008073ffffffffffffffffffffffffffffffffffffffff168373ffffffffffffffffffffffffffffffffffffffff1614156117c9576040517f08c379a00000000000000000000000000000000000000000000000000000000081526004016117c090613985565b60405180910390fd5b600073ffffffffffffffffffffffffffffffffffffffff168273ffffffffffffffffffffffffffffffffffffffff161415611839576040517f08c379a000000000000000000000000000000000000000000000000000000000815260040161183090613945565b60405180910390fd5b6000600960008573ffffffffffffffffffffffffffffffffffffffff1673ffffffffffffffffffffffffffffffffffffffff1681526020019081526020016000208054806020026020016040519081016040528092919081815260200182805480156118fa57602002820191906000526020600020905b8160009054906101000a900473ffffffffffffffffffffffffffffffffffffffff1673ffffffffffffffffffffffffffffffffffffffff16815260200190600101908083116118b0575b5050505050905060005b8151811015611979578373ffffffffffffffffffffffffffffffffffffffff1682828151811061193757611936613e38565b5b602002602001015173ffffffffffffffffffffffffffffffffffffffff16141561196657600192505050611980565b808061197190613d33565b915050611904565b5060009150505b92915050565b60008054906101000a900473ffffffffffffffffffffffffffffffffffffffff1673ffffffffffffffffffffffffffffffffffffffff163373ffffffffffffffffffffffffffffffffffffffff16146119de57600080fd5b8060015410156119ed57600080fd5b80600260008060009054906101000a900473ffffffffffffffffffffffffffffffffffffffff1673ffffffffffffffffffffffffffffffffffffffff1673ffffffffffffffffffffffffffffffffffffffff168152602001908152602001600020541015611a5a57600080fd5b8060016000828254611a6c9190613c52565b9250508190555080600260008060009054906101000a900473ffffffffffffffffffffffffffffffffffffffff1673ffffffffffffffffffffffffffffffffffffffff1673ffffffffffffffffffffffffffffffffffffffff1681526020019081526020016000206000828254611ae39190613c52565b92505081905550600073ffffffffffffffffffffffffffffffffffffffff1660008054906101000a900473ffffffffffffffffffffffffffffffffffffffff1673ffffffffffffffffffffffffffffffffffffffff167fddf252ad1be2c89b69c2b068fc378daa952ba7f163c4a11628f55a4df523b3ef83604051611b689190613a85565b60405180910390a350565b6060600960008373ffffffffffffffffffffffffffffffffffffffff1673ffffffffffffffffffffffffffffffffffffffff168152602001908152602001600020805480602002602001604051908101604052809291908181526020018280548015611c3457602002820191906000526020600020905b8160009054906101000a900473ffffffffffffffffffffffffffffffffffffffff1673ffffffffffffffffffffffffffffffffffffffff1681526020019060010190808311611bea575b50505050509050919050565b600660009054906101000a900473ffffffffffffffffffffffffffffffffffffffff1681565b600a602052816000526040600020602052806000526040600020600091509150505481565b600060149054906101000a900460ff1681565b60008054906101000a900473ffffffffffffffffffffffffffffffffffffffff1673ffffffffffffffffffffffffffffffffffffffff163373ffffffffffffffffffffffffffffffffffffffff1614611cf657600080fd5b600073ffffffffffffffffffffffffffffffffffffffff168173ffffffffffffffffffffffffffffffffffffffff161415611d66576040517f08c379a0000000000000000000000000000000000000000000000000000000008152600401611d5d90613a05565b60405180910390fd5b80600760006101000a81548173ffffffffffffffffffffffffffffffffffffffff021916908373ffffffffffffffffffffffffffffffffffffffff1602179055507f1bbe6d9eebc46961e51a28481eb7ee44dd2a49126987824cb9f41ee4ab4da91c81604051611dd691906137e6565b60405180910390a150565b60008054906101000a900473ffffffffffffffffffffffffffffffffffffffff1673ffffffffffffffffffffffffffffffffffffffff163373ffffffffffffffffffffffffffffffffffffffff1614611e3957600080fd5b60008111611e7c576040517f08c379a0000000000000000000000000000000000000000000000000000000008152600401611e7390613925565b60405180910390fd5b806004819055507f92e4b8a3e1c3c0607e1f6a0102220cfeac4db4b702b24064e6aee87885885d1b81604051611eb29190613a85565b60405180910390a150565b6000600f60149054906101000a900460ff1615611f8657600f60009054906101000a900473ffffffffffffffffffffffffffffffffffffffff1673ffffffffffffffffffffffffffffffffffffffff166370a08231836040518263ffffffff1660e01b8152600401611f2f91906137e6565b60206040518083038186803b158015611f4757600080fd5b505afa158015611f5b573d6000803e3d6000fd5b505050506040513d601f19601f82011682018060405250810190611f7f91906134c3565b9050611f92565b611f8f82612f91565b90505b919050565b60008054906101000a900473ffffffffffffffffffffffffffffffffffffffff1673ffffffffffffffffffffffffffffffffffffffff163373ffffffffffffffffffffffffffffffffffffffff1614611fef57600080fd5b60008111612032576040517f08c379a000000000000000000000000000000000000000000000000000000000815260040161202990613a65565b60405180910390fd5b806005819055507f08b5f02b448b15c0b31ca32226635e94494ddaa2cd48398aadcbde2c938f6df4816040516120689190613a85565b60405180910390a150565b600760009054906101000a900473ffffffffffffffffffffffffffffffffffffffff1681565b60008054906101000a900473ffffffffffffffffffffffffffffffffffffffff1673ffffffffffffffffffffffffffffffffffffffff163373ffffffffffffffffffffffffffffffffffffffff16146120f157600080fd5b600060149054906101000a900460ff161561210b57600080fd5b6001600060146101000a81548160ff0219169083151502179055507f6985a02210a168e66602d3235cb6db0e70f92b3ba4d376a33c0f3d9434bff62560405160405180910390a1565b6000600f60009054906101000a900473ffffffffffffffffffffffffffffffffffffffff16905090565b60008054906101000a900473ffffffffffffffffffffffffffffffffffffffff1681565b60035481565b600c80546121b590613d01565b80601f01602080910402602001604051908101604052809291908181526020018280546121e190613d01565b801561222e5780601f106122035761010080835404028352916020019161222e565b820191906000526020600020905b81548152906001019060200180831161221157829003601f168201915b505050505081565b600060149054906101000a900460ff161561225057600080fd5b600f60149054906101000a900460ff16156122fb57600f60009054906101000a900473ffffffffffffffffffffffffffffffffffffffff1673ffffffffffffffffffffffffffffffffffffffff16636e18980a3384846040518463ffffffff1660e01b81526004016122c49392919061386f565b600060405180830381600087803b1580156122de57600080fd5b505af11580156122f2573d6000803e3d6000fd5b50505050612306565b6123058282612fda565b5b5050565b6000601060008373ffffffffffffffffffffffffffffffffffffffff1673ffffffffffffffffffffffffffffffffffffffff16815260200190815260200160002060009054906101000a900460ff169050919050565b6000600f60149054906101000a900460ff16905090565b60008054906101000a900473ffffffffffffffffffffffffffffffffffffffff1673ffffffffffffffffffffffffffffffffffffffff163373ffffffffffffffffffffffffffffffffffffffff16146123cf57600080fd5b600073ffffffffffffffffffffffffffffffffffffffff168173ffffffffffffffffffffffffffffffffffffffff16141561243f576040517f08c379a000000000000000000000000000000000000000000000000000000000815260040161243690613a05565b60405180910390fd5b80600f60006101000a81548173ffffffffffffffffffffffffffffffffffffffff021916908373ffffffffffffffffffffffffffffffffffffffff1602179055507f9a6fd31fb135453b015bec892180cfc4b4dc8aa748fe120a3d8a908744f2c9d0600f60009054906101000a900473ffffffffffffffffffffffffffffffffffffffff166040516124d191906137e6565b60405180910390a150565b60008311156125135761251233600760009054906101000a900473ffffffffffffffffffffffffffffffffffffffff1685613009565b5b600084111561254a5761254933600660009054906101000a900473ffffffffffffffffffffffffffffffffffffffff1686613009565b5b60008211156125be576125bd33600860008473ffffffffffffffffffffffffffffffffffffffff1673ffffffffffffffffffffffffffffffffffffffff16815260200190815260200160002060009054906101000a900473ffffffffffffffffffffffffffffffffffffffff1684613009565b5b50505050565b6000806000600354600454600554925092509250909192565b6000600f60149054906101000a900460ff16156126a857600f60009054906101000a900473ffffffffffffffffffffffffffffffffffffffff1673ffffffffffffffffffffffffffffffffffffffff1663dd62ed3e84846040518363ffffffff1660e01b8152600401612651929190613801565b60206040518083038186803b15801561266957600080fd5b505afa15801561267d573d6000803e3d6000fd5b505050506040513d601f19601f820116820180604052508101906126a191906134c3565b90506126b5565b6126b2838361327d565b90505b92915050565b600080600660009054906101000a900473ffffffffffffffffffffffffffffffffffffffff16600760009054906101000a900473ffffffffffffffffffffffffffffffffffffffff16915091509091565b7fffffffffffffffffffffffffffffffffffffffffffffffffffffffffffffffff81565b60106020528060005260406000206000915054906101000a900460ff1681565b6009602052816000526040600020818154811061276c57600080fd5b906000526020600020016000915091509054906101000a900473ffffffffffffffffffffffffffffffffffffffff1681565b6000600860008373ffffffffffffffffffffffffffffffffffffffff1673ffffffffffffffffffffffffffffffffffffffff16815260200190815260200160002060009054906101000a900473ffffffffffffffffffffffffffffffffffffffff169050919050565b60045481565b60008060008060008054906101000a900473ffffffffffffffffffffffffffffffffffffffff1673ffffffffffffffffffffffffffffffffffffffff163373ffffffffffffffffffffffffffffffffffffffff16141580156128bd5750600660009054906101000a900473ffffffffffffffffffffffffffffffffffffffff1673ffffffffffffffffffffffffffffffffffffffff163373ffffffffffffffffffffffffffffffffffffffff1614155b80156129175750600760009054906101000a900473ffffffffffffffffffffffffffffffffffffffff1673ffffffffffffffffffffffffffffffffffffffff163373ffffffffffffffffffffffffffffffffffffffff1614155b15612a4e57600e5485606460035461292f9190613bc7565b6129399190613bf8565b6129439190613bc7565b9350600e548560646004546129589190613bc7565b6129629190613bf8565b61296c9190613bc7565b9250600073ffffffffffffffffffffffffffffffffffffffff16600860008873ffffffffffffffffffffffffffffffffffffffff1673ffffffffffffffffffffffffffffffffffffffff16815260200190815260200160002060009054906101000a900473ffffffffffffffffffffffffffffffffffffffff1673ffffffffffffffffffffffffffffffffffffffff1614612a2f57600e54856064600554612a149190613bc7565b612a1e9190613bf8565b612a289190613bc7565b9150612a34565b600091505b818385612a419190613b71565b612a4b9190613b71565b90505b92959194509250565b60008054906101000a900473ffffffffffffffffffffffffffffffffffffffff1673ffffffffffffffffffffffffffffffffffffffff163373ffffffffffffffffffffffffffffffffffffffff1614612aaf57600080fd5b600073ffffffffffffffffffffffffffffffffffffffff168173ffffffffffffffffffffffffffffffffffffffff1614612b2457806000806101000a81548173ffffffffffffffffffffffffffffffffffffffff021916908373ffffffffffffffffffffffffffffffffffffffff1602179055505b50565b60008054906101000a900473ffffffffffffffffffffffffffffffffffffffff1673ffffffffffffffffffffffffffffffffffffffff163373ffffffffffffffffffffffffffffffffffffffff1614612b7f57600080fd5b600073ffffffffffffffffffffffffffffffffffffffff168173ffffffffffffffffffffffffffffffffffffffff161415612bef576040517f08c379a0000000000000000000000000000000000000000000000000000000008152600401612be690613a05565b60405180910390fd5b6001601060008373ffffffffffffffffffffffffffffffffffffffff1673ffffffffffffffffffffffffffffffffffffffff16815260200190815260200160002060006101000a81548160ff0219169083151502179055507fad0f299ec81a386c98df0ac27dae11dd020ed1b56963c53a7292e7a3a314539a81604051612c7691906137e6565b60405180910390a150565b6040600481612c909190613b71565b60003690501015612ca057600080fd5b60008214158015612d2e57506000600a60003373ffffffffffffffffffffffffffffffffffffffff1673ffffffffffffffffffffffffffffffffffffffff16815260200190815260200160002060008573ffffffffffffffffffffffffffffffffffffffff1673ffffffffffffffffffffffffffffffffffffffff1681526020019081526020016000205414155b15612d3857600080fd5b81600a60003373ffffffffffffffffffffffffffffffffffffffff1673ffffffffffffffffffffffffffffffffffffffff16815260200190815260200160002060008573ffffffffffffffffffffffffffffffffffffffff1673ffffffffffffffffffffffffffffffffffffffff168152602001908152602001600020819055508273ffffffffffffffffffffffffffffffffffffffff163373ffffffffffffffffffffffffffffffffffffffff167f8c5be1e5ebec7d5bd14f71427d1e84f3dd0314c0f7b2291e5b200ac8c7c3b92584604051612e169190613a85565b60405180910390a3505050565b6060600481612e329190613b71565b60003690501015612e4257600080fd5b6000600a60008673ffffffffffffffffffffffffffffffffffffffff1673ffffffffffffffffffffffffffffffffffffffff16815260200190815260200160002060003373ffffffffffffffffffffffffffffffffffffffff1673ffffffffffffffffffffffffffffffffffffffff1681526020019081526020016000205490507fffffffffffffffffffffffffffffffffffffffffffffffffffffffffffffffff811015612f7f57612efe838261330490919063ffffffff16565b600a60008773ffffffffffffffffffffffffffffffffffffffff1673ffffffffffffffffffffffffffffffffffffffff16815260200190815260200160002060003373ffffffffffffffffffffffffffffffffffffffff1673ffffffffffffffffffffffffffffffffffffffff168152602001908152602001600020819055505b612f8a858585613009565b5050505050565b6000600260008373ffffffffffffffffffffffffffffffffffffffff1673ffffffffffffffffffffffffffffffffffffffff168152602001908152602001600020549050919050565b6040600481612fe99190613b71565b60003690501015612ff957600080fd5b613004338484613009565b505050565b600073ffffffffffffffffffffffffffffffffffffffff168373ffffffffffffffffffffffffffffffffffffffff161415613079576040517f08c379a0000000000000000000000000000000000000000000000000000000008152600401613070906139a5565b60405180910390fd5b600073ffffffffffffffffffffffffffffffffffffffff168273ffffffffffffffffffffffffffffffffffffffff1614156130e9576040517f08c379a00000000000000000000000000000000000000000000000000000000081526004016130e090613905565b60405180910390fd5b61313b81600260008673ffffffffffffffffffffffffffffffffffffffff1673ffffffffffffffffffffffffffffffffffffffff1681526020019081526020016000205461330490919063ffffffff16565b600260008573ffffffffffffffffffffffffffffffffffffffff1673ffffffffffffffffffffffffffffffffffffffff168152602001908152602001600020819055506131d081600260008573ffffffffffffffffffffffffffffffffffffffff1673ffffffffffffffffffffffffffffffffffffffff1681526020019081526020016000205461332b90919063ffffffff16565b600260008473ffffffffffffffffffffffffffffffffffffffff1673ffffffffffffffffffffffffffffffffffffffff168152602001908152602001600020819055508173ffffffffffffffffffffffffffffffffffffffff168373ffffffffffffffffffffffffffffffffffffffff167fddf252ad1be2c89b69c2b068fc378daa952ba7f163c4a11628f55a4df523b3ef836040516132709190613a85565b60405180910390a3505050565b6000600a60008473ffffffffffffffffffffffffffffffffffffffff1673ffffffffffffffffffffffffffffffffffffffff16815260200190815260200160002060008373ffffffffffffffffffffffffffffffffffffffff1673ffffffffffffffffffffffffffffffffffffffff16815260200190815260200160002054905092915050565b60008282111561331757613316613d7c565b5b81836133239190613c52565b905092915050565b600080828461333a9190613b71565b90508381101561334d5761334c613d7c565b5b8091505092915050565b6000813590506133668161414d565b92915050565b60008135905061337b81614164565b92915050565b60008151905061339081614164565b92915050565b6000602082840312156133ac576133ab613e67565b5b60006133ba84828501613357565b91505092915050565b600080604083850312156133da576133d9613e67565b5b60006133e885828601613357565b92505060206133f985828601613357565b9150509250929050565b60008060006060848603121561341c5761341b613e67565b5b600061342a86828701613357565b935050602061343b86828701613357565b925050604061344c8682870161336c565b9150509250925092565b6000806040838503121561346d5761346c613e67565b5b600061347b85828601613357565b925050602061348c8582860161336c565b9150509250929050565b6000602082840312156134ac576134ab613e67565b5b60006134ba8482850161336c565b91505092915050565b6000602082840312156134d9576134d8613e67565b5b60006134e784828501613381565b91505092915050565b6000806000806080858703121561350a57613509613e67565b5b60006135188782880161336c565b94505060206135298782880161336c565b935050604061353a8782880161336c565b925050606061354b87828801613357565b91505092959194509250565b6000613563838361356f565b60208301905092915050565b61357881613c86565b82525050565b61358781613c86565b82525050565b600061359882613b2c565b6135a28185613b4f565b93506135ad83613b1c565b8060005b838110156135de5781516135c58882613557565b97506135d083613b42565b9250506001810190506135b1565b5085935050505092915050565b6135f481613c98565b82525050565b600061360582613b37565b61360f8185613b60565b935061361f818560208601613cce565b61362881613e6c565b840191505092915050565b6000613640602383613b60565b915061364b82613e7d565b604082019050919050565b6000613663602383613b60565b915061366e82613ecc565b604082019050919050565b6000613686601583613b60565b915061369182613f1b565b602082019050919050565b60006136a9603383613b60565b91506136b482613f44565b604082019050919050565b60006136cc601583613b60565b91506136d782613f93565b602082019050919050565b60006136ef602583613b60565b91506136fa82613fbc565b604082019050919050565b6000613712601c83613b60565b915061371d8261400b565b602082019050919050565b6000613735602183613b60565b915061374082614034565b604082019050919050565b6000613758601983613b60565b915061376382614083565b602082019050919050565b600061377b602083613b60565b9150613786826140ac565b602082019050919050565b600061379e601b83613b60565b91506137a9826140d5565b602082019050919050565b60006137c1602283613b60565b91506137cc826140fe565b604082019050919050565b6137e081613cc4565b82525050565b60006020820190506137fb600083018461357e565b92915050565b6000604082019050613816600083018561357e565b613823602083018461357e565b9392505050565b600060808201905061383f600083018761357e565b61384c602083018661357e565b613859604083018561357e565b61386660608301846137d7565b95945050505050565b6000606082019050613884600083018661357e565b613891602083018561357e565b61389e60408301846137d7565b949350505050565b600060208201905081810360008301526138c0818461358d565b905092915050565b60006020820190506138dd60008301846135eb565b92915050565b600060208201905081810360008301526138fd81846135fa565b905092915050565b6000602082019050818103600083015261391e81613633565b9050919050565b6000602082019050818103600083015261393e81613656565b9050919050565b6000602082019050818103600083015261395e81613679565b9050919050565b6000602082019050818103600083015261397e8161369c565b9050919050565b6000602082019050818103600083015261399e816136bf565b9050919050565b600060208201905081810360008301526139be816136e2565b9050919050565b600060208201905081810360008301526139de81613705565b9050919050565b600060208201905081810360008301526139fe81613728565b9050919050565b60006020820190508181036000830152613a1e8161374b565b9050919050565b60006020820190508181036000830152613a3e8161376e565b9050919050565b60006020820190508181036000830152613a5e81613791565b9050919050565b60006020820190508181036000830152613a7e816137b4565b9050919050565b6000602082019050613a9a60008301846137d7565b92915050565b6000606082019050613ab560008301866137d7565b613ac260208301856137d7565b613acf60408301846137d7565b949350505050565b6000608082019050613aec60008301876137d7565b613af960208301866137d7565b613b0660408301856137d7565b613b1360608301846137d7565b95945050505050565b6000819050602082019050919050565b600081519050919050565b600081519050919050565b6000602082019050919050565b600082825260208201905092915050565b600082825260208201905092915050565b6000613b7c82613cc4565b9150613b8783613cc4565b9250827fffffffffffffffffffffffffffffffffffffffffffffffffffffffffffffffff03821115613bbc57613bbb613dab565b5b828201905092915050565b6000613bd282613cc4565b9150613bdd83613cc4565b925082613bed57613bec613dda565b5b828204905092915050565b6000613c0382613cc4565b9150613c0e83613cc4565b9250817fffffffffffffffffffffffffffffffffffffffffffffffffffffffffffffffff0483118215151615613c4757613c46613dab565b5b828202905092915050565b6000613c5d82613cc4565b9150613c6883613cc4565b925082821015613c7b57613c7a613dab565b5b828203905092915050565b6000613c9182613ca4565b9050919050565b60008115159050919050565b600073ffffffffffffffffffffffffffffffffffffffff82169050919050565b6000819050919050565b60005b83811015613cec578082015181840152602081019050613cd1565b83811115613cfb576000848401525b50505050565b60006002820490506001821680613d1957607f821691505b60208210811415613d2d57613d2c613e09565b5b50919050565b6000613d3e82613cc4565b91507fffffffffffffffffffffffffffffffffffffffffffffffffffffffffffffffff821415613d7157613d70613dab565b5b600182019050919050565b7f4e487b7100000000000000000000000000000000000000000000000000000000600052600160045260246000fd5b7f4e487b7100000000000000000000000000000000000000000000000000000000600052601160045260246000fd5b7f4e487b7100000000000000000000000000000000000000000000000000000000600052601260045260246000fd5b7f4e487b7100000000000000000000000000000000000000000000000000000000600052602260045260246000fd5b7f4e487b7100000000000000000000000000000000000000000000000000000000600052603260045260246000fd5b600080fd5b6000601f19601f8301169050919050565b7f45524332303a207472616e7366657220746f20746865207a65726f206164647260008201527f6573730000000000000000000000000000000000000000000000000000000000602082015250565b7f4d61726b6574696e67466565206d75737420626520677265617465722074686160008201527f6e20300000000000000000000000000000000000000000000000000000000000602082015250565b7f726566657272616c20697320756e646566696e65640000000000000000000000600082015250565b7f706572736f6e20796f752061726520726566657272696e672068617320616c7260008201527f6561647920676f74206120726566657272657200000000000000000000000000602082015250565b7f726566657272657220697320756e646566696e65640000000000000000000000600082015250565b7f45524332303a207472616e736665722066726f6d20746865207a65726f20616460008201527f6472657373000000000000000000000000000000000000000000000000000000602082015250565b7f75706772616465644164647265737320697320756e646566696e656400000000600082015250565b7f5374616b696e67466565206d7573742062652067726561746572207468616e2060008201527f3000000000000000000000000000000000000000000000000000000000000000602082015250565b7f796f75206172652073657474696e672030206164647265737300000000000000600082015250565b7f596f752063616e206e6f7420626520796f7572206f776e20726566657272616c600082015250565b7f4e6f205065726d697373696f6e20746f206d696e7420746f6b656e0000000000600082015250565b7f526566657272616c466565206d7573742062652067726561746572207468616e60008201527f2030000000000000000000000000000000000000000000000000000000000000602082015250565b61415681613c86565b811461416157600080fd5b50565b61416d81613cc4565b811461417857600080fd5b5056fea26469706673582212200b0f0b272a86bc881cb492741b928734078e3cadb2d1c6c6b8addc346916c96964736f6c63430008070033",
  "linkReferences": {},
  "deployedLinkReferences": {}
}